:020000040800F2
:10000000A81E002099010008AF1A0008031A000872
:10001000AD1A000851070008012000080000000088
:1000200000000000000000000000000001010008C6
:10003000530700080000000045010008391C0008B3
:10004000B3010008B3010008B3010008B3010008C0
:10005000B3010008B3010008B3010008B3010008B0
:10006000B3010008B3010008B3010008B3010008A0
:10007000B3010008B3010008B3010008B301000890
:10008000B3010008B3010008B3010008B301000880
:10009000B3010008B3010008B3010008B301000870
:1000A000B3010008FD1C0008B3010008B3010008FB
:1000B000B3010008B3010008091D0008B3010008DE
:1000C000B3010008B3010008B3010008B11A000829
:1000D000B3010008C91F0008B3010008B3010008FC
:1000E000B3010008B3010008B3010008DFF80CD029
:1000F00000F09EFA0048004725290008A81E0020AD
:10010000224B19680868B0E8F00F80F30988BFF344
:100110006F8F4FF0000080F311884EF00D0E704786
:100120000000000006480068006880F3088862B696
:1001300061B6BFF34F8FBFF36F8F00DF00BF00BF0B
:1001400008ED00E0EFF30980BFF36F8F0F4B1A68E3
:1001500020E9F00F106008B54FF0500080F31188CF
:10016000BFF34F8FBFF36F8F03F026FB4FF00000FC
:1001700080F31188BDE8084019680868B0E8F00FFE
:1001800080F30988BFF36F8F704700BF34000020F1
:10019000EFF3058070470000064880470648004797
:1001A000FEE7FEE7FEE7FEE7FEE7FEE7FEE7FEE727
:1001B000FEE7FEE7B51C0008ED000008202A04DB7E
:1001C000203A21FA02F00021704721FA02F3D040D0
:1001D000C2F12002914008431946704740EA0103EA
:1001E0009B0703D009E008C9121F08C0042AFAD2ED
:1001F00003E011F8013B00F8013B521EF9D27047B1
:10020000D2B201E000F8012B491EFBD27047002258
:10021000F6E710B513460A4604461946FFF7F0FF05
:10022000204610BD421C10F8011B0029FBD1801A8A
:10023000704730B50B46014600202022012409E01A
:1002400021FA02F59D4205D303FA02F5491B04FA8F
:1002500002F52844151EA2F10102F1DC30BD2DE9A2
:10026000F05F0546002092469B468846064681463A
:1002700040241BE02846414647462246FFF79EFFA2
:1002800053465A46C01A914110D311461846224689
:1002900000F0E0F92D1A67EB01084F4622460120D5
:1002A000002100F0D7F917EB00094E41201EA4F100
:1002B0000104DFDC484631462A464346BDE8F09F4C
:1002C0002DE9FE4F804681EA0300C00F0C460090E6
:1002D00021F0004123F00045B8EB0200A94105D20E
:1002E0004046214690461C460B46024623F00040FD
:1002F000104347D0270DC7F30A00C3F30A510290F9
:10030000401A019040286BDAC3F3130040F4801BBD
:100310000098924620B10023D2EB030A63EB0B0B4B
:1003200001985946C0F14002504600F093F9064644
:100330000D4650465946019A00F09BF910EB080013
:100340006141002487EA115284EAE7731A4340D0DE
:10035000009A62B3019A012A4FEA075215DC001B8A
:1003600061EB02014FF0004202EA0752CDE9004280
:10037000001C41F5801132462B4600F09BF903B07A
:10038000BDE8F08F40462146F9E7001B61EB020112
:10039000001C41F5801300185B412018A2F50017DE
:1003A00047EB030140EAD570B6196D4111E06D08C5
:1003B0004FEA360645EAC0754FEA0752001B61EB6B
:1003C0000201001C41F5801149084FEA3000001974
:1003D000514132462B4603B0BDE8F04F00F05BB907
:1003E0000098012240000023D0EB020263EBE0738F
:1003F000009821464FEAE074B8EB000061EB04017D
:10040000E9E783F000435BE781F0004158E72DE91D
:10041000FE4F81EA030404F0004421F000410094FF
:100420004FF0000B23F0004350EA01045ED052EA83
:1004300003045BD0C3F30A54C1F30A552C44A4F25D
:10044000F3340194A0FB0254C1F3130141F4801171
:10045000C3F3130343F4801301FB024400FB034E78
:10046000840A970A44EA815447EA8357A4FB076841
:1004700002958D0A05FB07854FEA932C04FB0C546B
:100480002705029D4FEA065847EA1637B5EB0805DF
:100490006EEB070C870E920E47EA811742EA831231
:1004A000A7FB0201B6EB0B0164EB00042B0D43EA42
:1004B0000C335E1844EB1C50DA465146E7FB020150
:1004C000C5F313044FEA0B3343EA14534FEA0432E3
:1004D000019C43EA0603A4F10C040294009CCDE9BC
:1004E00000B400F0E7F803B0BDE8F08F002001464B
:1004F000F9E72DE9F04D81EA030404F0004B21F007
:10050000004514464FF0000A23F0004150EA05026E
:1005100020D054EA01021DD0C5F30A570246C5F3A4
:100520001303C1F31300C1F30A5640F4801543F4DA
:100530008013A7EB0608101BD64608F2FD3873EBB4
:10054000050002D308F1010801E092185B41B8F1FF
:10055000000F03DA00200146BDE8F08D00204FF4C3
:100560008011064684460EE0171B73EB050705D382
:10057000121B63EB050306434CEA010C49084FEAE2
:10058000300092185B4150EA0107EDD152EA0300B6
:1005900012D082EA040083EA0501084305D0101B4B
:1005A000AB4106D20122002306E000224FF00043B7
:1005B00002E06FF0010253101AEB06004CEB0851F9
:1005C00010EB0A0041EB0B01BDE8F04D00F063B801
:1005D000C1F30A52C1F3130140F2FF3341F4801119
:1005E0009A4202DA00200146704740F233439A42B1
:1005F000A2F2334202DC5242FFF7E0BD00F02AB81B
:1006000030B5041E71F1000404DB4FF00044404299
:1006100064EB0101141E73F1000405DB1C464FF06E
:100620000043524263EB0403994208BF904230BD3D
:10063000064C074D06E0E06840F0010394E807002F
:1006400098471034AC42F6D3FFF754FDE041000860
:1006500000420008202A04DB203A00FA02F10020C0
:1006600070479140C2F1200320FA03F319439040F0
:100670007047202A06DBCB17203A41FA02F043EA02
:10068000E07306E041FA02F3D040C2F1200291404B
:1006900008431946704710B5141E73F1000408DAB8
:1006A000401C41F1000192185B411A4301D120F036
:1006B000010010BD2DE9F04D92469B4611B1B1FAF3
:1006C00081F202E0B0FA80F220329046FFF7C2FFDA
:1006D00004460F4640EA0A0041EA0B0153465A46D7
:1006E000084313D0114653EA010019D0C8F1400263
:1006F0005046FFF763FD05460E46504659464246B2
:10070000FFF7A8FF084305D0012004E02046394642
:10071000BDE8F08D0020054346EAE0762C433743E0
:100720000A986305E40AA0EB08000022FD0A44EAE7
:1007300047540A3002D500200146E9E701051019A7
:100740006941DDE9084500196941BDE8F04DA2E7BE
:10075000FEE77047002200F001B8000030B50E4BF4
:10076000054601205C7A012C15D8587A00241C54C7
:10077000587A03EB800045605D7A03F108002A5443
:10078000587A421C5A72303008703A2048702F2034
:100790008870CC70002030BDC401002010B590F8E6
:1007A00021100024022903D00421816301243DE0AB
:1007B00001680A6822F00E020A6001680A6822F0E5
:1007C00001020A601A4A0168914201D1012121E027
:1007D000174A1432914201D110211BE0144A2832E9
:1007E000914201D1891515E0114A3C32914201D163
:1007F00089140FE00E4A5032914202D14FF48031F9
:1008000008E00B4A6432914202D14FF4801101E0BA
:100810004FF08071064A083A5160012180F821109A
:10082000002180F82010416B01B18847204610BD9F
:10083000080002402DE9F84FDFF8B891002409F1D3
:10084000040A0AF1040B23460F270BF1040EC9E03A
:100850000125A5402A40AA427DD1674ED1F804C0A7
:10086000ACEB0608B44532D014DCBCF1030F3AD02F
:1008700009DCBCF1000F2AD0BCF1010F1CD0BCF187
:10088000020F31D11DE0BCF1110F17D0BCF1120FD6
:100890002AD119E0B8F5881F19D006DCB8F5803FD9
:1008A00015D0B8F5801F1FD111E0B8F5001F0ED08C
:1008B000B8F5041F18D10AE0CB6815E0CB681B1D02
:1008C00012E0CB6808330FE0CB680C330CE08B6888
:1008D0002BB1012B4FF0080303D0456104E0042342
:1008E00002E0056100E00023FF2A01D8064601E08E
:1008F00000F104064FEA840501D9A5F12005D6F8D8
:10090000008007FA05FC28EA0C0803FA05F548EA16
:100910000508C6F800804D68ED0062D5374DAE6918
:1009200046F00106AE61AD6924F0030605F001054D
:100930000095334D06EB050CDCF80850A607360F82
:1009400007FA06F825EA0805DFF8B880404503D124
:100950004FF0000817E044E0DFF8AC80404502D1DA
:100960004FF001080FE0DFF8A480404502D14FF0BE
:10097000020808E0DFF89880404502D14FF00308F4
:1009800001E04FF0040808FA06F848EA0508CCF838
:1009900008804D68D9F80060ED034D4601D5164337
:1009A00000E096432E604D68DAF80060AD035546CE
:1009B00001D5164300E096432E604D68DBF80060D9
:1009C000ED025D4601D5164300E096432E604D686A
:1009D000DEF80060AD02754601D5164300E096438F
:1009E0002E60641C0D682A46E5407FF431AFBDE8F7
:1009F000F88F0000000401400000111000100240B8
:100A00000000014000080140000C014000100140BE
:100A1000001401400AB1016170470904FBE70000BE
:100A20000148806870470000240000200248816867
:100A3000027811448160704724000020074810B5F7
:100A4000016841F010010160032000F095F80020DA
:100A500000F006F800F03EF8002010BD0020024033
:100A600000B5014687B000221E2000F065F81E2068
:100A700000F054F81348C16941F00401C161C06934
:100A800005A900F004000690684600F01DF900F08A
:100A90003BF90D494000B0FBF1F10D480B4A491EEE
:100AA0000260416040F2E7320021C0E90321816029
:100AB00000F014FD10B1012007B000BD044800F0A3
:100AC00047FDF9E70010024040420F0000080040D7
:100AD000840100200F4808B5816941F0010181615E
:100AE000816901F001010091C16941F08051C1614A
:100AF000C069002200F0805000900F21901E00F08D
:100B00001BF80548416821F0E06141F00071416047
:100B100008BD00000010024000000140002809DB71
:100B200000F01F02012191404009800000F1E02007
:100B3000C0F8001170470000F0B40E4B1B680C4663
:100B4000C3F30223C3F10705042D00D90425191DA1
:100B5000072901D2002300E0DB1E012606FA05F179
:100B6000491E214099409E40761E16403143F0BCFC
:100B700001F05ABA0CED00E0064900F007020868DF
:100B80004FF6FF03184040EA0220034A1043086072
:100B9000704700000CED00E00000FA052DE9F04779
:100BA0000F46050061D0434E306800F00700B842A0
:100BB00009D2306820F0070038433060306800F018
:100BC0000700B84251D128683B4C810712D5400735
:100BD00003D5606840F4E06060602878000703D5C2
:100BE000606840F4605060606068A96820F0F000C0
:100BF000084360602878C00728D06868012810D0B2
:100C00002168022810D0890700292EDA616821F0B6
:100C1000030101436160FFF703FF804641F2883919
:100C20000DE021688903EFE78901EDE7FFF7F8FEA2
:100C3000A0EB0801494502D90320BDE8F0876068B0
:100C4000696800F00C00B0EB810FEFD1306800F064
:100C50000700B8420BD9306820F0070038433060F5
:100C6000306800F00700B84201D00120E5E728789D
:100C7000400705D56068E96820F4E06008436060DB
:100C80002878000706D56068296920F4605040EA9A
:100C9000C100606000F058F86168084AC1F30311B0
:100CA000515CC8400649086006480068FFF7D8FE56
:100CB0000020C2E70020024000100240BC410008B2
:100CC00030000020280000200F2202600C4A5368E8
:100CD00003F003034360536803F0F0038360536839
:100CE00003F4E063C36052684FF4E06303EAD202A6
:100CF00002610448006800F00700086070470000C7
:100D0000001002400020024004480549006849687C
:100D1000044AC1F30221515CC840704730000020F2
:100D200000100240CC4100080448054900684968A9
:100D3000044AC1F3C221515CC84070473000002012
:100D400000100240CC41000812A185B00FC98DE807
:100D50000F0014A0144A006804905168134801F071
:100D60000C03042B10D0082B0ED1C1F38343C9030D
:100D70001DF803000AD5516804AAC1F34041515C33
:100D80000A4A5043B0FBF1F005B0704708494843A8
:100D9000FAE7000002030405060708090A0B0C0D18
:100DA0000E0F1010010200000010024000127A0025
:100DB00000093D002DE9F84F040070D02078C04DA7
:100DC000C00749D06868C0F38100012807D068686F
:100DD000C0F38100022809D16868C00306D52868DD
:100DE000800339D560680028E7D035E06068B0F549
:100DF000803F0BD010B1B0F5A02F11D0286820F49F
:100E000080302860286820F4802002E0286840F4C0
:100E100080302860606890B1FFF702FE06460AE065
:100E2000286840F480202860F0E700BFFFF7F8FD55
:100E3000801B642873D828688003F7D50CE0FFF77F
:100E4000EFFD064605E000BFFFF7EAFD801B6428C2
:100E5000F0D828688003F7D420789A4E80074FF0A6
:100E600001094FF0000839D5686810F00C0F07D061
:100E70006868C0F38100022809D16868C00306D4FD
:100E80002868800714D52069012808D110E020695E
:100E9000B0B1C6F80090FFF7C3FD074605E00AE1D0
:100EA000FFF7BEFDC01B0228C4D828688007F7D50D
:100EB0002868616920F0F80040EAC10028600DE070
:100EC000C6F80080FFF7ACFD074604E0FFF7A8FD79
:100ED000C01B022823D828688007F7D42078000791
:100EE0002CD57948A169D9B1C0F80090FFF798FDD9
:100EF000074604E0FFF794FDC01B02280FD8686A7C
:100F00008007F7D571484FF4FA510068B0FBF1F053
:100F1000009000BF0098411E0091FAD20EE080E0E0
:100F2000C0F80080FFF77CFD074604E0FFF778FD7E
:100F3000C01B022875D8686A8007F7D4207840075C
:100F400060D5E8690027C00008D4E86940F0805007
:100F5000E861E869012700F0805000905C48016872
:100F6000C90513D40168834641F480710160FFF71D
:100F700057FD824606E000BFFFF752FDA0EB0A00D6
:100F800064284ED8DBF80000C005F5D5E0680128DC
:100F90000AD008B1052813D0286A20F00100286281
:100FA000286A20F0040002E0286A40F0010028626C
:100FB000E06841F2883B98B1FFF732FD82460BE0D2
:100FC000286A40F004002862EEE700BFFFF728FD22
:100FD000A0EB0A0159455AD8286A8007F6D50CE0DB
:100FE000FFF71EFD824605E0FFF71AFDA0EB0A01A0
:100FF00059454CD8286A8007F6D41FB1E86920F01B
:101000008050E861E06988B36968C1F38101022911
:1010100044D00228C6F8608004D0FFF701FD0446E2
:1010200038E034E0FFF7FCFC074604E0FFF7F8FC8B
:10103000C01B02282BD828688001F7D4206AB0F59D
:10104000803F05D16868A16820F4003008436860DB
:10105000D4E908010843696821F474110843686001
:10106000C6F86090FFF7DCFC044606E025E000BF10
:10107000FFF7D6FC001B022809D828688001F7D5A5
:101080001BE000BFFFF7CCFC001B022802D90320A5
:10109000BDE8F88F28688001F4D40EE00128F7D06D
:1010A0006868226A00F48031914204D1616A00F4D8
:1010B0007010884201D00120EAE70020E8E7000034
:1010C00000100240000042428004424230000020F2
:1010D000007000407047000038B504460068426860
:1010E0008168C9434B0606D5CB0704D1D3435B06C1
:1010F00001D4216C05E08B0708D4D3431B0605D42B
:10110000616C01B02046BDE8304008478B0601D530
:101110004B0646D4D3439B0643D44B060AD494F8DB
:101120005130032B3ED0636D43F004036365C36805
:1011300083680093890609D4616D41F001016165FE
:1011400081680091016821F040010160606D002814
:1011500027D02068416821F0E0014160012084F837
:101160005100900722D02068416821F003014160BE
:10117000104DE06C40B14563E06CFFF70FFB18B118
:10118000606D40F040006065A06C002809D04563A8
:10119000A06CFFF703FB002803D0606D40F0400017
:1011A000606538BDC1688068009038BD2046FFF793
:1011B00091FF38BDBD1A000870B5040005D00025A8
:1011C000A56294F8510010B106E0012070BD84F8CA
:1011D0005050204600F02EF8022084F8510020687C
:1011E000016821F040010160D4E901010843D4E91C
:1011F00003121143084361690843218B01F4007114
:101200000843E1690843216A0843A16A0843216849
:101210000860A069042101EA104021684860206844
:10122000C16921F40061C1616565012084F8510044
:10123000002070BD30B585B0002400940194029464
:1012400003940068184988422BD11848816941F4F9
:1012500080518161816901F480510491816941F07B
:10126000040181618069124D00F004000490A02007
:101270000090022001900320039069462846FFF762
:10128000D9FA4020CDE90004694628460294FFF7C8
:10129000D1FA002205212320FFF74EFC2320FFF77F
:1012A0003DFC05B030BD00000030014000100240A0
:1012B000000801402DE9F84F044690F8500000273F
:1012C0000A9E1D4692468B464FF0010901280ED01A
:1012D000012084F85000FFF7A3FB804694F85100EA
:1012E000616801280CD0B1F5827F07D102E00220AD
:1012F000BDE8F88FA16809B9042801D00227C2E02F
:10130000BBF1000F27D0BAF1000F24D01DB394F821
:101310005100042802D0052084F8510000206065A7
:10132000C4F838A0E587A587C4F830B0E586A5865F
:101330002064606420680168490603D4016841F0B4
:1013400040010160E068B0F5006F606805D0E8B367
:10135000012D46D07FE0012795E008B1012D39D15C
:10136000206B21680088C860206B801C2063E08EA1
:10137000401EE0862EE02068816889070FD5E18E47
:1013800069B1B9F1010F0AD1216B0988C160206BE5
:10139000801C2063E08E401EE0864FF0000920682C
:1013A0008168C9070CD0E18F51B1C068A16B08807A
:1013B000A06B801CA063E08F401EE0874FF0010906
:1013C000FFF72EFBA0EB0800B04200E009E001D3DC
:1013D000701C50D1E08E0028CDD1E08F0028CAD1FA
:1013E0003FE0206B216800780873206B401C20636D
:1013F000E08E401EE0862EE02068816889070FD5C8
:10140000E18E69B1B9F1010F0AD1216B097801733D
:10141000206B401C2063E08E401EE0864FF00009E8
:1014200020688168C9070CD0E18F51B1C068A16BF9
:101430000870A06B401CA063E08F401EE0874FF057
:101440000109FFF7EDFAA0EB0800B04202D3701CCF
:1014500001D010E07EB1E08E0028CDD1E08F0028D1
:10146000CAD142463146204600F030FB28B1012760
:101470002020606507E0032705E0A06818B9206810
:10148000C16880680090012084F85100002084F831
:10149000500038462CE77047704770B590F83C20F4
:1014A000012A19D0012400F83C4F0222427050F862
:1014B0003C3C5A689D6822F070060A6849683243CD
:1014C00025F0800529435A6050F83C2C9160447007
:1014D00000210170084670BD022070BD10B50400E7
:1014E00003D094F83D0010B107E0012010BD0020AA
:1014F00084F83C00204600F00DF8022084F83D00FE
:10150000211D206800F006FC012084F83D00002029
:1015100010BD000008B500680B49884212D10B4885
:10152000816941F4006181618069002200F40060FA
:10153000009005211920FFF7FFFABDE808401920A7
:10154000FFF7ECBA08BD0000002C0140001002407B
:101550000168CA6842F00102CA600068816801F04F
:101560000701062903D0016841F001010160002054
:10157000704770B5044690F83C00012817D001254B
:1015800084F83C50022084F83D002068826822F0F4
:10159000770222F47F4282600868502830D00DDC48
:1015A00020284DD005DC98B310283BD148E002201C
:1015B00070BD302844D0402834D139E0602828D08C
:1015C000702806D0B0F5805F2CD0B0F5005F29D12F
:1015D0000AE0CB68D1E90121206800F0D1FB206846
:1015E000816841F0770109E0CB68D1E901212068E9
:1015F00000F0C6FB2068816841F48041816011E001
:10160000CA684968206800F0CDFB5021206807E0D7
:1016100016E0CA684968206800F0D5FB60212068A0
:1016200000F0B8FB84F83D50002084F83C0070BD09
:10163000CA684968206800F0B5FB40212068EFE7E0
:10164000226801461046EBE7704770B50446006813
:1016500001694FF00005C943890715D4C168C94322
:10166000890711D4E91E0161012020772068806973
:101670008007204602D0FFF7E7FF04E000F098F86B
:10168000204600F096F8257720680169C94349078C
:1016900017D4C168C943490713D46FF0040101612D
:1016A000022020772068806910F4407F204602D015
:1016B000FFF7CAFF04E000F07BF8204600F079F85D
:1016C000257720680169C943090716D4C168C94351
:1016D000090712D46FF00801016104202077206807
:1016E000C0698007204602D0FFF7AEFF04E000F09B
:1016F0005FF8204600F05DF8257720680169C9434E
:10170000C90617D4C168C943C90613D46FF01001C4
:101710000161082020772068C06910F4407F2046CE
:1017200002D0FFF791FF04E000F042F8204600F0FD
:1017300040F8257720680169C943C90708D1C16805
:10174000C943C90704D1891E0161204600F032F85F
:1017500020680169C943090609D4C168C94309065B
:1017600005D46FF0800101612046FFF794FE2068E8
:101770000169C943490609D4C168C943490605D46A
:101780006FF040010161204600F01EF820680169F9
:10179000C94389060BD4C168C943890607D46FF0D1
:1017A000200101612046BDE87040FFF775BE70BDA5
:1017B0007047704700680349884201D1FFF736B986
:1017C00070470000000800407047704770B502681D
:1017D00004461068D168536910F00F0F50D003F021
:1017E000010501F4907635435DD0C20705D0CA05E6
:1017F00003D5E26B42F00102E263420705D5DA0746
:1018000003D0E26B42F00202E263820705D5DA07F9
:1018100003D0E26B42F00402E263020705D5DA0767
:1018200003D0E26B42F00802E263E26B002A33D09D
:10183000800604D5880602D5204600F0ECFA206820
:101840004069E16BC0F38010090700D428B320463B
:1018500000F0D3FA2068416949061AD5416921F0A0
:1018600040014161606BA0B11B494163606BFEF7B1
:1018700095FF002810D0606B416BBDE870400847B1
:10188000830610D58B060ED52046BDE8704000F0CB
:10189000C2BA2046FFF799FF70BD2046FFF795FFBB
:1018A0000020E06370BD030606D50B0604D5204674
:1018B000BDE8704000F056BB4006F3D54806F1D5B0
:1018C000D168204621F04001D160202184F83910F0
:1018D00000F096F870BD0000EB1D000870B5040024
:1018E00004D094F83900002510B106E0012070BD45
:1018F00084F83850204600F023F8242084F839007A
:101900002068C16821F40051C160204600F0CEFA81
:101910002068016921F4904101612068416921F04A
:101920002A0141612068C16841F40051C160E5634A
:10193000202084F8390084F83A00002070BD0000AF
:1019400030B585B00024009401940294039400689B
:10195000184988422CD11848816941F4804181613D
:10196000816901F480410491816941F00401816140
:101970008069124D00F0040004904FF40070009054
:10198000022001900320039069462846FEF752FF8B
:101990002815CDE90004694628460294FEF74AFF5F
:1019A000002205212520FFF7C7F82520FFF7B6F80C
:1019B00005B030BD00380140001002400008014071
:1019C000704790F83930202B18D1A9B1A2B190F806
:1019D0003830012B12D001628284C2840021C1639D
:1019E000212280F8392080F838100068C16841F061
:1019F0008001C160002070470120704702207047BD
:101A00007047FEE710B504490448FEF7A3FE0249FB
:101A1000491E087010BD00001D00002008000020B5
:101A20000C480B494FF4007201604FF48271416021
:101A300000218160C1600161C0E905123822C0E95E
:101A40000721416281620A21C162FFF7B5BB000034
:101A500000300140AC00002010B586B000241248D0
:101A6000009401940294039404940E490594016037
:101A700048F69F41C0E901141621C0E903144461EE
:101A80008461FFF72BFD4FF48050009069460648B3
:101A9000FFF76FFD049404A903480594FFF7FDFCCC
:101AA00006B010BD002C014004010020FEE7704785
:101AB0000148FFF711BB0000AC00002010B5406AE0
:101AC0000021C187C186FFF705FB10BD38B50B4665
:101AD000009204460022802100F008F8002804D07B
:101AE000606D40F020006065032038BD2DE9F041B5
:101AF0001D4617460E460446DDF8188008E0681CAF
:101B000006D0FEF78DFFA0EB0800A8420BD255B11E
:101B10002068806836EA000030D00020B842EED15C
:101B20000020BDE8F0812068416821F0E0014160BB
:101B30006068B0F5827F0BD1A068B0F5004F02D08D
:101B4000B0F5806F04D12068016821F04001016088
:101B5000A06AB0F5005F09D12068016821F4005146
:101B600001602068016841F400510160012084F89F
:101B70005100002084F850000320D2E70120CDE777
:101B800086B0FFF73FFFFF20DFF87C908DF80C0058
:101B9000012210214846FEF73DFF00256427A84694
:101BA00003AC00262146641C01230022174800973D
:101BB000FFF780FB761EF6B2F4D26D1CEDB20A2D53
:101BC000EED3002210214846FEF724FF44464FF48E
:101BD000CF75642000F004FF8DF8004001216846B5
:101BE00001F0C6FB8DF80440012101A801F0C0FB03
:101BF0009DF80400FF28F7D19DF800302A4604A183
:101C000007A001F0DBFBE4E700080140AC00002086
:101C10002E2E2F5372632F6D61696E2E63000000AC
:101C200025732025643A7364207265616465643AA3
:101C30002025580D0A00000010B5502080F31188AF
:101C4000BFF34F8FBFF36F8F02F004F918B104494F
:101C50004FF080500860002080F3118810BD000014
:101C600004ED00E030B58FB028216846FEF7CFFACA
:101C700014210AA8FEF7CBFA01210804CDE90010CF
:101C80000024029402250491CDE907504FF4E0109E
:101C900009906846FFF78EF80F20CDE90A05680223
:101CA000CDE90C4002210AA80E94FEF777FF0FB091
:101CB00030BD00000D48016841F00101016041683C
:101CC0000B4A1140416001680A4A114001600168F5
:101CD00021F480210160416821F4FE0141604FF44C
:101CE0001F0181600449C003086070470010024072
:101CF0000000FFF8FFFFF6FE08ED00E00148FFF7E7
:101D0000A4BC0000040100200148FFF79EBC0000B5
:101D100084010020F0B50268164B174C174D4FF0A8
:101D20008047984205D0B84203D0A04201D0A842D3
:101D300003D122F070064A683243984205D0B84277
:101D400003D0A04201D0A84203D122F44074CA6853
:101D500022434C6922F08002224302608A68C262F8
:101D60000A688262984201D10969016301214161D7
:101D7000F0BD0000002C01400004004000080040BD
:101D800010B5846842EA032224F47F440A432243C4
:101D9000826010BD826822F070020A4342F007019F
:101DA0008160704710B5036A046A24F0010404627C
:101DB000846924F0F00444EA021423F00A020A437E
:101DC0008461026210BD10B5036A23F01003036240
:101DD0008369046A23F4704343EA023224F0A003C7
:101DE00043EA01118261016210BD10B5406A002111
:101DF000C185C184FFF7E9FC10BD0168CA6822F4FF
:101E00009072CA6001684A6922F001024A61202189
:101E100080F83A10704710B590F83A10222901D096
:101E2000022010BD8168B1F5805F11D001690029E1
:101E300001681FD0496801F07F03816A4A1C8262F1
:101E40000B70C18D491E0904090CC18518D02BE007
:101E50000269816A002A0268526805D0D2B20A80FB
:101E6000816A491C8162ECE7C2F308020A80816A38
:101E7000891CF7E74A68816A4B1C83620A70E0E7B5
:101E80000168CA6822F02002CA600168CA6822F4A8
:101E90008072CA6001684A6922F001024A61202109
:101EA00080F83A10FFF78CFD002010BD2DE9F041BD
:101EB000044600680169E26821F440511143016160
:101EC0002169A0680843616908432168CA6841F232
:101ED0000C639A430243CA6020684169A26921F4F5
:101EE0004071114341611E492068642532268842B1
:101EF00002D1FEF719FF01E0FEF706FF00EBC0017B
:101F000001EB001160686FF018078000B1FBF0F280
:101F1000B2FBF5F2B1FBF0F37A4303EB8202B1FBC3
:101F2000F0F306EB0212B2FBF5F2B3FBF5F302F0AD
:101F3000F00202EB0312B1FBF0F3B1FBF0F0B0FBE7
:101F4000F5F0784303EB800006EB0010B0FBF5F0F2
:101F5000216800F00F0010448860BDE8F0810000A7
:101F60000038014090F83910212901D00220704733
:101F70008168B1F5805F016A0BD04A1C0262026879
:101F800009785160C18C491E0904090CC1840ED026
:101F900017E009880268C1F308015160016900294E
:101FA000016A02D0491C0162ECE7891CFBE7016869
:101FB000CA6822F08002CA600068C16841F040012E
:101FC000C1600020704700000148FFF7FFBB000020
:101FD0004401002002480121017000787047000090
:101FE00004000020012070470020704702480121B2
:101FF0000170007870470000040000200020704746
:10200000FEE7000037B514460846064B6A462146EF
:1020100000F0ECF804466946002000F07EFC204603
:102020003EBD00001B2900080907090E002804DB3B
:1020300000F1E02080F80014704700F00F0000F17C
:10204000E02080F8141D704702E008C8121F08C184
:10205000002AFAD170477047002001E001C1121F29
:10206000002AFBD1704700002DE9FF5F82B00021FC
:10207000DDE90430020DDDF840B0034318D044F62A
:102080001050A2F2FF3242431514119801281FD0BC
:10209000A5EB0B00401C5FEA000A4FF000064E4F14
:1020A000DFF83891B046504615D5CAF1000413E068
:1020B000119801244AA3012801D16FEA0B0102986B
:1020C000119AC0E90031C0E9024206B0BDE8F09FB4
:1020D000CBF10000DFE704460021404A491842EBFB
:1020E0000450CDE9001012E0E00707D032463B462D
:1020F00040464946FEF78BF98046894632463B46C4
:1021000010461946FEF783F906460F466410002C68
:10211000EAD1DDE90401DDE90023BAF1000F06DAB6
:10212000FEF775F942464B46FEF771F905E0FEF7FA
:10213000E0F942464B46FEF7DCF904460E46002223
:10214000284BFEF75DFA03D84FF0FF30014607E059
:102150000022254B20463146FEF7B2F8FEF738FA4A
:10216000102409E0002C0ADB0A220023FEF777F88E
:10217000039B30321A55641E50EA0102F2D1641CEE
:10218000039AC4F111031444119A012A03D00122C5
:1021900008430DD10AE0084304D000204FF0110B92
:1021A000119072E7A3EB0B056D1E0DE05B4504DD9E
:1021B0004FF0000205F1010504E003DA4FF00002E0
:1021C000A5F10105002AECD002981199C0E902316D
:1021D000C0E9004579E70000000014400000F03F2E
:1021E000300000000000F0430000E03F2DE9FF4F09
:1021F00095B09B468946064600250FE2252877D1F3
:1022000000242746F84A0121059400E0044316F80B
:10221000013F203B01FA03F01042F7D130782A2821
:1022200011D06FF02F033078A0F13002092A16D8B0
:10223000059A44F0020402EB820203EB42021044CE
:10224000761C0590EFE759F8042B0592002A03DA73
:10225000504244F40054059044F00204761C307857
:102260002E2816D116F8010F44F004042A280DD0A8
:102270006FF02F023078A0F13003092B09D807EB5B
:10228000870302EB4303C718761CF3E759F8047B76
:10229000761C30786C280FD006DC4C2817D06828C4
:1022A0000DD06A2814D104E0742810D07A280FD1F8
:1022B0000DE044F400140AE044F4801401E044F416
:1022C00040147278824202D104F58014761C761C88
:1022D000307866280BD013DC582877D009DC00282A
:1022E00075D04528F6D04628F4D047281AD19DE16C
:1022F00018E0632835D0642879D0652812D195E19B
:10230000702873D008DC6728F1D069286FD06E2858
:102310000DD06F2806D1B5E073282CD0752875D064
:10232000782874D05A46179990476D1C75E1C4F30C
:102330000250022809D003280DD0D9F80010042833
:102340000DD00D6009F1040967E1D9F80010EA1712
:10235000C1E90052F6E7D9F800100D80F2E70D70E0
:10236000F0E719F8041B8DF8001000208DF801002B
:10237000EA46012003E059F804AB4FF0FF30610753
:102380004FF0000102D40DE008F101018846B94286
:102390000FDA8045F8DB1AF808100029F4D108E0BC
:1023A00008F1010188468142FADB1AF80810002979
:1023B000F6D105985B46A0EB080721463846179AE8
:1023C00000F094FA284400EB080507E04DE029E10D
:1023D0000DE01AF8010B5A4617999047B8F1010819
:1023E000F7D25B4621463846179A13E142E00A22AB
:1023F0000092C4F302524FF0000A022A08D059F8A2
:1024000004CB032A4FEAEC710AD00DE029E02AE060
:1024100009F1070121F00702F2E802C1914609E043
:102420000FFA8CFC4FEAEC71042A03D14FFA8CFCB2
:102430004FEAEC71002907DA0A460021DCF1000CB2
:1024400061EB02012D2202E0220504D52B228DF83A
:102450000420012203E0E20701D02022F7E79046A2
:1024600059E00A2102E010220DE010214FF0000A8D
:1024700000910BE010224FF0000A44F004040827FA
:10248000009203E008224FF0000A0092C4F30252C7
:10249000022A05D059F804CB0021032A08D009E00C
:1024A00009F1070121F00702F2E802C1914605E0B7
:1024B0001FFA8CFC042A01D10CF0FF0C4FF000082D
:1024C000220728D5702806D0009B83F0100353EA1A
:1024D0000A0305D00EE040228DF80420012208E016
:1024E0005CEA010206D030228DF804208DF8050048
:1024F00002229046009B83F0080353EA0A030AD1A4
:102500005CEA010201D1620705D530228DF8042072
:102510004FF001087F1E582804D034A003900EA865
:1025200002900DE036A0F9E753466046009AFDF7A9
:1025300096FE84460398825C0298401E02900270C8
:102540005CEA0100F0D1029806A9081A00F1200AFD
:10255000600702D524F4803400E00127574502DDEE
:10256000A7EB0A0000E0002000EB0A0100900598AC
:102570004144401A0590E00306D45B462146179A71
:10258000059800F0B3F90544002706E001A85A4673
:10259000C05D179990476D1C7F1C4745F6DBE00333
:1025A0000CD55B462146179A059800F09FF9054423
:1025B00004E030205A46179990476D1C0099481E38
:1025C00000900029F5DC08E0029802995A4600784C
:1025D000491C0291179990476D1CBAF10001AAF1AC
:1025E000010AF1DC65E100000928010030313233D5
:1025F000343536373839616263646566000000003F
:102600003031323334353637383941424344454628
:102610000000000000F058F90544761C30780028CE
:102620007FF4ECAD19B02846BDE8F08F620700D406
:10263000062709F1070222F0070CFCE80223E14615
:1026400003F000485FEA080C02D00FF2702C0DE096
:102650005FEA045C02D50FF2682C07E05FEAC47CF5
:1026600002D00FF2602C01E0AFF2700C4FF0FF3897
:1026700023F00043CDF850C065280CD006DC452877
:1026800009D046281DD047283DD13DE0662818D006
:1026900067287ED138E00021112F01DB112000E0F6
:1026A000781CCDE9000106A90EA8FFF7DDFCDDE9E5
:1026B0000F010E9A03910021009207F1010A049183
:1026C0004DE04FF000400097CDE9011006A90EA89B
:1026D000FFF7CAFCDDE90F0203920E9B119900225D
:1026E000DDF80CA00093049211B9791C00EB010AEB
:1026F000B7EB0A0004D4C0F1FF3007F1010A0490DF
:10270000AAEB0700019044E0012F00DA0127002125
:10271000112F01DD112000E03846CDE9000106A9A6
:102720000EA8FFF7A1FCDDE90F010E9A039100212D
:1027300004910092BA4621070CD40399514500DA5E
:102740008A46BAF1010F05DD009AAAF10101515C38
:10275000302908D0B84202DA10F1040F06DA01215C
:10276000CDE9011015E0AAF10101E9E7002805DC37
:10277000049901440491AAEB000102E0411C514577
:1027800000DD8A460499401A401C01904FF0004039
:102790000290200704D40198504501DBCDF8048055
:1027A00000208DF84F0002980DF14F07B0F1004F57
:1027B00025D02B200E9002984FF0020800280CDA4A
:1027C000404202902D200E9007E00A210298FDF76A
:1027D00030FD3031029007F8011DB8F10001A8F179
:1027E0000108F2DC02980028EFD1791E0E980870DB
:1027F000307800F0200040F0450007F8020D12A8E4
:10280000C01B00F107081498007800B1012000EB0C
:102810000A01019801EBE07105984144401A401EFD
:102820000590E00306D45B462146179A059800F010
:102830005DF805441498007818B15A4617999047E6
:102840006D1CE00324D55B462146179A059800F0DD
:102850004DF805441CE00498002807DBDDE903017E
:10286000884203DD0098405C179901E017993020F9
:102870005A469047049805F10105401C04900198C0
:10288000401E019004D12E205A46179990476D1C86
:10289000BAF10001AAF1010ADDDC05E017F8010B2D
:1028A0005A46179990476D1CB8F10001A8F101082C
:1028B000F4DC5B462146179A0598ABE62D00000034
:1028C0002B000000200000002DE9F0410446002507
:1028D0001E461746880404D405E039462020B04738
:1028E0006D1C641EF9D52846BDE8F0812DE9F04144
:1028F000044600251E469046C80301D5302700E057
:102900002027880404D505E041463846B0476D1CB1
:10291000641EF9D52846BDE8F0810A68531C0B6097
:10292000107070478EB0FEF789F8FFF79BF900240E
:1029300024480094019402940394816941F0200199
:102940008161816901F020010D91816941F00401EB
:10295000816180691C4D00F004000D90002210215F
:102960002846FEF757F8102000900120CDE9010419
:102970000220039069462846FDF75CFFFFF750F8F8
:10298000FFF76AF81248114901604FF4E131C0E9DC
:1029900001140C21C460C0E904418461C461FEF7E4
:1029A0009DFF00F037F824220A4904A8FDF716FC21
:1029B00004AA0021084800F069F80849086000F0FE
:1029C00045F8FEE7001002400008014000380140D1
:1029D0004401002098410008811B000800000020ED
:1029E00010B5EFF3058149B9EFF3108131B908490A
:1029F0000968022905D1EFF3118111B16FF00504C7
:102A000003E0002408B100F023FE204610BD0000C2
:102A100084000020EFF3058058B9EFF3108040B92F
:102A200009490868022801D030B109E0EFF31180AC
:102A300030B16FF00500704701200860002070473A
:102A40004FF0FF30704700008400002010B5EFF316
:102A5000058060B9EFF3108048B90B490868022877
:102A600002D0012806D00BE0EFF3118040B16FF0E7
:102A7000050010BD0220086000F052FE002010BDCD
:102A80004FF0FF3010BD000084000020F0B585B08D
:102A90004FEA01034FF00004EFF305810394A1BB5B
:102AA000EFF3108189BB21490968022902D1EFF3B4
:102AB000118151BB48B3802618218DF8104004AD18
:102AC00042B3176807B13D4697691FB139467F1E6B
:102AD000382F02D21779FF0702D0002005B0F0BDD1
:102AE000576907B1BE08D2F808C0BCF1000F0DD07D
:102AF000D4685C2C18D312693AB137B18DE806104E
:102B00003246294601F067F903900DE0D7685FB9B6
:102B100012694AB903AACDE90012B2B2294601F0FE
:102B20002DF9012800D003940398D7E784000020F2
:102B30002DE9F041134C0F46054666692068001DDB
:102B400000F056FC681C07D137B12168BDE8F041A0
:102B50000D48091D00F09CBC20683544B542456015
:102B6000216805D2A068BDE8F041091D00F078BCDD
:102B70006068091D00F074FC206B854200D225635B
:102B8000BDE8F08134000020C00600202DE9F041AE
:102B9000054600F089FC2D4C2069401C206120680E
:102BA0002B4F10B1E06930B32BE02560206901287C
:102BB00027D1002606EB860007EB800000F042FCE0
:102BC000761C382EF6D3234800F03CFC2148143004
:102BD00000F038FC1F48283000F034FC1D483C3021
:102BE00000F030FC1B48503000F02CFC19486060AD
:102BF0001430A06005E02068E96AC06A884200D805
:102C00002560E06A401CE0626864E86AA169884265
:102C100000D9A06100EB800007EB8000291D00F0C7
:102C200037FC00F061FCE06900280CD02068E96AFC
:102C3000C06A884207D208494FF080500860BFF34D
:102C40004F8FBFF36F8FBDE8F0810000340000208C
:102C5000100200207006002004ED00E038B500F0FE
:102C600023FC104CA068C8B90F4800F0EBFB0E48DD
:102C7000143000F0E7FB0C482060143060600A4B11
:102C800000202833009003F1500210210A2000F0A8
:102C900019FEA06010B105A100F0A4FCBDE8384009
:102CA00000F022BC70000020D4060020546D725148
:102CB0000000000030B4026C0B46002A0BD0C16843
:102CC0001144C1604468A14201D30168C16030BCB5
:102CD0001846FDF783BA30BC70472DE9F041856B8B
:102CE000174604460026026C82B1C7B1E068FDF7C2
:102CF00075FAE168206C091AE1602268914202D2FB
:102D00006168081AE060022F16D017E02068A8B9A1
:102D1000606801F003F90646002060600EE0A068DC
:102D2000FDF75CFA216CA0680844A06061688842E5
:102D300004D32068A06001E005B16D1E6D1CA56381
:102D40003046BDE8F08110B5044690F8590058B1FE
:102D500001280CD002280FD0502080F31188BFF337
:102D60004F8FBFF36F8FFEE7206B00F0D1FB204643
:102D7000BDE8104000F0CCBB10BD000010484FF47F
:102D80004061420706D0C01D0D4920F00700411ADE
:102D9000C1F540610B4A00230144C2E90003083930
:102DA000103A21F0070111604B600B600B1AC0E96B
:102DB000001393604FF000405360D06070470000F4
:102DC000A40E002098000020144E154CA6F29C473B
:102DD0004FF08058DFF84C9012E000BF00F064FB29
:102DE000F068C568281D00F003FB2069401E2061C3
:102DF000E068401EE06000F077FB2846FFF7A3FF85
:102E0000E0680028EAD138680128F9D9C9F80080BB
:102E1000BFF34F8FBFF36F8FF2E70000AC060020C7
:102E20003400002004ED00E070B51D46049C51B153
:102E3000C4F80020C4E90F010121204600F076FD0E
:102E400084F84C5070BD2460F4E72DE9F0470E463D
:102E5000DDE909841746824691009946089DA5221E
:102E6000206BFDF7CDF96FF00301206B01EB8701BB
:102E7000084420F00707780707D0502080F3118816
:102E8000BFF34F8FBFF36F8FFEE72218315C82F8DC
:102E90003410315C11B1401C1028F6D3002684F8A0
:102EA0004360382D00D33725E562C4E91356201D51
:102EB00000F0D3FA04F1180000F0CFFA2461C5F154
:102EC00038006462A061666584F858604A465146DD
:102ED000384600F03BFA2060B8F1000F01D0C8F886
:102EE0000040BDE8F087000030B5114900E0114610
:102EF0000A688242FBD34B685C18844203D1406865
:102F000018444860084643681C18944209D1084C8C
:102F1000103C2468A24209D052681A4442600A68F0
:102F200012680260814200D0086030BD0460F9E799
:102F30009800002070B5002441600B4D0061914263
:102F400006D8D11A8269914206D2011D686807E04D
:102F50009A4203D2994201D3012403E0011D28685B
:102F600000F07EFA204670BD7000002010B50446C7
:102F700000F09AFAA06B28B15FF0000400F0B4FAF8
:102F8000204610BD0124F9E730B589B0304D55E039
:102F90000498002806DADDE90601059A90470498AE
:102FA00000284BDB069C606910B1201D00F020FA60
:102FB00002A800F0B9F8024604980A283ED2DFE8D9
:102FC00000F00505053D263705053D260598A16954
:102FD000034601442046FFF7ADFF00B3616A204677
:102FE0008847E069012829D1002000900598A1694F
:102FF000002342181946204601F09AF878B950206B
:1030000080F31188BFF34F8FBFF36F8FFEE70598F2
:10301000A06128B1811813462046FFF78BFF0DE011
:10302000502080F31188BFF34F8FBFF36F8FFEE7FF
:1030300094F82C0010B9204600F06AFA002204A986
:10304000A86800F0C5FD0028A2D109B030BD00007D
:10305000700000202DE9FC410F46054600F0A4FB5E
:1030600001A800F061F80446019818B100F0CEFF05
:10307000BDE8FC81224EAFB170680068A8B300279C
:10308000291B3A46B06800F0C1FA00F0BFFF0028E3
:10309000EED11C494FF080500860BFF34F8FBFF353
:1030A0006F8FE5E7A542EBD800F0B0FF3068274608
:1030B000C068C468201D00F09BF9E069012810D1A8
:1030C000A0692B4641193A462046FFF733FF40B12D
:1030D00000200346014600902A46204601F028F8C9
:1030E00020B1616A20468847C2E707E0502080F39C
:1030F0001188BFF34F8FBFF36F8FFEE70127BFE744
:103100007000002004ED00E006484168096829B11C
:103110004168C968C9684968016370474FF0FF3169
:10312000FAE700003400002070B5054600F08CFE80
:10313000064E04463069844203D200F009F80120AB
:1031400000E0002028602046346170BD700000203F
:10315000F8B5194D1FE0C068C4680668201D00F06E
:1031600047F9616A20468847E069012813D1A069C0
:103170003044B04206D924616060211D286800F007
:103180006FF908E0002003460146009032462046D1
:1031900000F0CEFF38B1286801680029DBD16968EA
:1031A000C5E90010F8BD502080F31188BFF34F8FA0
:1031B000BFF36F8FFEE700007000002008484068F2
:1031C000401C4FF0500080F3118804D0BFF34F8FA4
:1031D000BFF36F8FFEE7BFF34F8FBFF36F8FFEE735
:1031E000A0000020074C2068016841B1C0680021A0
:1031F000D0F80000FFF72EFFFFF7C6FEF3E701212E
:103200000020F7E7700000202DE9F041044600F0AF
:103210004BF994F9455004F1240609E0606A48B17D
:10322000304600F0BBFE08B100F040FA6D1E6DB2F2
:10323000002DF3DC4FF0FF3684F8456000F054F9C0
:1032400000F032F994F9445004F1100709E02069C4
:1032500048B1384600F0A2FE08B100F027FA6D1E12
:103260006DB2002DF3DC84F84460BDE8F04100F05D
:103270003BB900002DE9F0410546002700F094FA23
:10328000314E306808B9FFF779FDF06805424BD13F
:10329000C5B3083568070ED005F00700C0F1080077
:1032A0000544680707D0502080F31188BFF34F8F83
:1032B000BFF36F8FFEE72DB37068854234D8224884
:1032C000103001460C6801E020460C466168A942B6
:1032D00002D221680029F7D131688C4224D00768D6
:1032E0002168016060680837411B10290FD96019F7
:1032F000420708D0502080F31188BFF34F8FBFF3EF
:103300006F8FFEE710E041606560FFF7EDFD6168DB
:103310007068401A7060B268904200D2B060F06885
:1033200001430020C4E9000100F070FE780707D0D7
:10333000502080F31188BFF34F8FBFF36F8FFEE7EC
:103340003846BDE8F08100008800002010B5031F5A
:103350004FF080741C601B1F21F001011960191FC0
:10336000024B0B60143940380A6010BDBD310008B3
:103370002DE9FC410746FF200E4E0C468DF8040057
:10338000002210213046FDF745FB642507E03A4650
:103390007F1C012301A908480095FDF78BFF641EDF
:1033A000E4B2F4D2012210213046FDF733FBBDE830
:1033B000FC81000000080140AC0000200FB44FF475
:1033C000807100B5C1B06846FCF721FF43AA68468A
:1033D0004299FEF717FE6846FCF724FF82B2694661
:1033E0000248FEF7EEFA41B05DF814FB44010020FC
:1033F000D0E9013201699A60D0E901235A604A6834
:10340000824201D182684A60002202610868401E3F
:103410000860086870470000034B036003F15C001C
:103420000860802010607047EC070020044B0360A8
:1034300003F15C0008604FF480701060704700007A
:10344000480A002000F108014FF0FF32C0E90112E4
:10345000C160016100210160704700210161704776
:1034600030B50B685A1C02D000F1080202E0026974
:1034700004E02246546825689D42FAD953684B609F
:1034800099608A60516008610168491C016030BD23
:1034900042684A6093688B609368596091600861E4
:1034A0000168491C01607047502080F31188BFF308
:1034B0004F8FBFF36F8F0A494868401C486001284E
:1034C0000CD10848006810F0FF0F07D0502080F39F
:1034D0001188BFF34F8FBFF36F8FFEE77047000077
:1034E000A000002004ED00E00849486828B1401E13
:1034F000486001D180F311887047502080F3118813
:10350000BFF34F8FBFF36F8FFEE70000A0000020D6
:1035100070B5002827D0144DA0F108046168E86850
:10352000014207D1502080F31188BFF34F8FBFF3C2
:103530006F8FFEE722683AB1502080F31188BFF305
:103540004F8FBFF36F8FFEE78143616000F02CF96E
:1035500060686968084468602046FFF7C5FCBDE8FC
:10356000704000F053BD70BD880000204FF0E02097
:1035700000210161816105494FF47A720968B1FB4C
:10358000F2F1491E416107210161704730000020BE
:1035900010B5FCF7FDFD114910280ED300F1E02015
:1035A00090F8F0030A78904207D2502080F31188F7
:1035B000BFF34F8FBFF36F8FFEE70948006889683C
:1035C00000F4E060884207D9502080F31188BFF3EF
:1035D0004F8FBFF36F8FFEE710BD0000A0000020EB
:1035E0000CED00E010B5084B002200BF53F832404C
:1035F0001CB1521C082AF9D310BD43F8321003EB5A
:10360000C201486010BD0000D001002070B5154611
:103610000E460446FFF748FF94F944100020491C69
:1036200001D184F8440094F94510491C01D184F873
:103630004500FFF759FFA06B28B92A46314604F12F
:10364000240000F051F82046BDE87040FFF7DCBDD3
:1036500010B5020014D00F48806B38B1502080F3B1
:103660001188BFF34F8FBFF36F8FFEE700F09CF818
:1036700000211046FFF75CFA00F0C8FC002807D1D3
:1036800005494FF080500860BFF34F8FBFF36F8F35
:1036900010BD00003400002004ED00E002498A6AF9
:1036A00002604969416070473400002001490120EF
:1036B000486270473400002010B50C4650B10949EB
:1036C00009681831FFF7CCFE2046BDE81040012103
:1036D000FFF72EBA502080F31188BFF34F8FBFF34E
:1036E0006F8FFEE73400002070B514460D4668B1B8
:1036F0000A4909681831FFF7CBFE0CB14FF0FF35CE
:1037000021462846BDE87040FFF712BA502080F3EA
:103710001188BFF34F8FBFF36F8FFEE73400002097
:1037200030B587B00024039405AA04A903A8049423
:10373000FFF772FEDDE903010094CDE901100023DB
:1037400015A11748059A00F046FB164D002868633E
:103750001FD000F0BDFC012809D0401C19D1502019
:1037600080F31188BFF34F8FBFF36F8FFEE75020B8
:1037700080F31188BFF34F8FBFF36F8F4FF0FF308F
:1037800028630120E8616C6107B0BDE8304000F0BB
:1037900045B807B030BD000049444C45000000006A
:1037A000C92D0008340000200248816B491C816348
:1037B0007047000034000020164810B5816B11B12D
:1037C0000121416210BD002141628169124A01E07C
:1037D000B9B1491E01EB810352F82330002BF7D019
:1037E00001EB810302EB830202F1080453685B687A
:1037F0005360A34201D15B685360DA680260816163
:1038000010BD502080F31188BFF34F8FBFF36F8F2F
:10381000FEE7000034000020100200201CB52649FD
:1038200008780190FF20087008788DF800009DF856
:1038300000009DF8002000F0F000904207D05020DA
:1038400080F31188BFF34F8FBFF36F8FFEE79DF8B2
:1038500000001A4B00F0500018700720986005E037
:103860009DF8002052008DF80020401E9DF8002099
:103870001206F5D49860032807D0502080F31188F1
:10388000BFF34F8FBFF36F8FFEE74FF44070986028
:10389000019808700A48016841F4700101600168EC
:1038A00041F070410160FFF761FE00205860FCF7B5
:1038B00039FC00201CBD000000E400E0A000002056
:1038C00020ED00E038B5049D18B153B1CAB181B103
:1038D00020E0502080F31188BFF34F8FBFF36F8F2C
:1038E000FEE7502080F31188BFF34F8FBFF36F8F37
:1038F000FEE7502080F31188BFF34F8FBFF36F8F27
:10390000FEE739B1502080F31188BFF34F8FBFF32A
:103910006F8FFEE750241C46012384F846302B4667
:103920000094FFF781FA204638BD000070B50D46BF
:10393000040025D0FFF7B8FDD4E90F20216802FB71
:10394000001161600021A1632168A1600A46D4E9E9
:103950000F01401E00FB0121E16021464FF0FF30C6
:1039600001F8440F487004F110008DB1FFF76AFDB3
:1039700004F12400FFF766FDFFF7B6FD012070BDDE
:10398000502080F31188BFF34F8FBFF36F8FFEE796
:1039900021690029F0D000F001FB0028ECD0044997
:1039A0004FF080500860BFF34F8FBFF36F8FE3E796
:1039B00004ED00E02DE9FF4782B01D468A464FF036
:1039C0000008040003D0BAF1000F08D011E0502025
:1039D00080F31188BFF34F8FBFF36F8FFEE7206C2A
:1039E00038B1502080F31188BFF34F8FBFF36F8F32
:1039F000FEE7022D0AD1E06B012807D0502080F3AA
:103A00001188BFF34F8FBFF36F8FFEE700F00EFA00
:103A10003F4F4FF000094FF0805648B9049838B135
:103A2000502080F31188BFF34F8FBFF36F8FFEE7F5
:103A3000FFF73AFDA06BE16B884207D3022D05D05A
:103A40000498D0B1B8F1000F1AD01EE02A465146B2
:103A50002046FFF742F9616A19B104F1240000F031
:103A60009DFA20B13E60BFF34F8FBFF36F8FFFF71A
:103A70003BFD012006B0BDE8F087FFF735FD22E0F1
:103A80006846FFF70BFE4FF00108FFF72DFDFFF72B
:103A90008BFEFFF709FD94F94400401C01D184F826
:103AA000449094F94500401C01D184F84590FFF7FB
:103AB0001BFD04A9684600F027F930B12046FFF746
:103AC000A3FB00F0A3FA0020D4E7FFF7EDFCA06B06
:103AD000E16B884213D1FFF707FD04F11000049950
:103AE000FFF7EAFD2046FFF78FFB00F08FFA002872
:103AF0009ED13E60BFF34F8FBFF36F8F98E7FFF704
:103B0000F3FC2046FFF780FB00F080FA90E700000E
:103B100004ED00E02DE9F0471F4690468946040079
:103B200003D0B9F1000F08D011E0502080F31188C4
:103B3000BFF34F8FBFF36F8FFEE7206C38B150207B
:103B400080F31188BFF34F8FBFF36F8FFEE7022F13
:103B50000AD1E06B012807D0502080F31188BFF311
:103B60004F8FBFF36F8FFEE7FFF712FD5020EFF38B
:103B7000118680F31188BFF34F8FBFF36F8FA06B57
:103B8000E16B884206D3022F04D0002086F311880F
:103B9000BDE8F08794F945503A4649462046FFF77C
:103BA0009CF8681C04D06D1C84F845500120EDE79A
:103BB000606A0028FAD004F1240000F0EFF9002830
:103BC000F4D0B8F1000FF1D00121C8F80010EDE7F2
:103BD0002DE9F747002683B08A46040003D0BAF1E6
:103BE000000F08D011E0502080F31188BFF34F8FF1
:103BF000BFF36F8FFEE7206C38B1502080F311883F
:103C0000BFF34F8FBFF36F8FFEE700F00FF9DFF8C0
:103C1000F4804FF000094FF0805748B9059838B14B
:103C2000502080F31188BFF34F8FBFF36F8FFEE7F3
:103C3000FFF73AFCA56BC5B151462046FFF73AF8AD
:103C40006D1EA563206950B104F1100000F0A6F9C3
:103C500028B1C8F80070BFF34F8FBFF36F8FFFF725
:103C600043FC012006B0BDE8F087059808B11EB1FD
:103C700006E0FFF739FC27E06846FFF70FFD012655
:103C8000FFF732FCFFF790FDFFF70EFC94F94400BC
:103C9000401C01D184F8449094F94500401C01D1A6
:103CA00084F84590FFF720FC05A9684600F02CF841
:103CB000002820460AD0FFF7A7FA00F0A7F920460F
:103CC000FFF754F90028B3D00020CBE7FFF74EF9F7
:103CD00090B104F124000599FFF7EEFC2046FFF7B0
:103CE00093FA00F093F90028A2D1C8F80070BFF34E
:103CF0004F8FBFF36F8F9BE72046FFF785FA00F0E9
:103D000085F995E704ED00E02DE9F0410C4605004A
:103D100011D0C4B1FFF7C8FB174B5A696E68206811
:103D2000911B471C17D02F689B6A9F4219D096425F
:103D300017D8012410E0502080F31188BFF34F8F73
:103D4000BFF36F8FFEE7502080F31188BFF34F8FD2
:103D5000BFF36F8FFEE70024FFF7C6FB2046BDE8E8
:103D6000F081884205D9401A20602846FFF796FC6A
:103D7000F1E700202060DCE7340000202DE9FF5F40
:103D80008346DDE90E87994616468A469000FFF77E
:103D900071FA05001CD05C20FFF76CFA040014D007
:103DA0000020256384F85900CDE90240CDE9008761
:103DB0004B46324651465846FFF747F82046FEF735
:103DC000E5FE012004B0BDE8F09F2846FFF7A0FB08
:103DD0004FF0FF30F6E7F0B585B0DDE90B640A9DE2
:103DE000A6B1DCB15C2700972663022684F85960EF
:103DF000002604AFCDE90246CDE90057FFF725F8CC
:103E00002046FEF7C3FE049805B0F0BD502080F3B5
:103E10001188BFF34F8FBFF36F8FFEE7502080F301
:103E20001188BFF34F8FBFF36F8FFEE70548C1695D
:103E300019B1806B18B10020704701207047022033
:103E400070470000340000200148406970470000BE
:103E5000340000202DE9F0412E4C0027A06B40B12A
:103E6000206A401C2062606A00B101273846BDE824
:103E7000F0816669761C666113D16068006838B1AC
:103E8000502080F31188BFF34F8FBFF36F8FFEE791
:103E90006068A1686160A060A06A401CA062FFF732
:103EA00033F9206BDFF87080864209D360680068C0
:103EB00080B16068C068C568686886420DD22063BA
:103EC0002068C06A00EB800158F821000128CAD997
:103ED0000127C8E74FF0FF30F1E7281DFFF788FA08
:103EE000A86A18B105F11800FFF782FAE86AA1691B
:103EF000884200D9A06100EB800108EB8100291DF8
:103F0000FFF7C6FAE86A2168C96A8842CED301275A
:103F1000CCE70000340000201002002070B504003F
:103F20004FF0000133D01B4D2868844207D0502049
:103F300080F31188BFF34F8FBFF36F8FFEE7206DC3
:103F400038B1401E2065E36CE26A9A421FD040B14E
:103F50001DE0502080F31188BFF34F8FBFF36F8FA8
:103F6000FEE7201DFFF744FAE06CE062C0F1380084
:103F7000A061E06AA969884200D9A861064900EBFE
:103F8000800001EB8000211DFFF782FA0121084625
:103F900070BD0000340000201002002070B5C06821
:103FA000C46854B104F118000646FFF721FA144D15
:103FB000A86B50B13146134815E0502080F31188AA
:103FC000BFF34F8FBFF36F8FFEE7201DFFF710FA8F
:103FD000E06AA969884200D9A8610B4900EB80001A
:103FE00001EB8000211DFFF753FAE06A2968C96AD6
:103FF000884202D90120686270BD002070BD0000B7
:104000003400002098060020100200202DE9F0471F
:104010002C4D00242746A86B38B1FFF745FAA86B52
:10402000401EA863A86B40B146E0502080F3118881
:10403000BFF34F8FBFF36F8FFEE72969224E012038
:10404000D1B3A6F5916980463068E0B1F068C468E4
:1040500004F11800FFF7CCF9201DFFF7C9F9E06A59
:10406000A969884200D9A86100EB800109EB8100B1
:10407000211DFFF70DFAE06A2968C96A8842E3D377
:10408000C5F82480E0E70CB1FFF73EF82C6A4CB18C
:104090004FEA0806FFF7DEFE00B16E62641EF9D13A
:1040A00000202862686A38B108490127380708608B
:1040B000BFF34F8FBFF36F8FFFF716FA3846BDE897
:1040C000F0870000340000209806002004ED00E096
:1040D00010B586B0FEF7C2FD114CA068B8B1002043
:1040E0000390049005AA04A903A8FFF79FF9DDE94E
:1040F000032102208DE8070000230AA10B48059A3E
:10410000FFF769FEE06010B106B0012010BD50203D
:1041100080F31188BFF34F8FBFF36F8FFEE700006E
:1041200070000020546D722053766300E531000862
:104130002DE9FF411E46134602000A9D4FF0000084
:1041400016D0144CA768002F0FD0CDE900130292AF
:10415000062917DAFFF76AFE02284FF000030FD096
:1041600000226946A068FFF725FC04B0BDE8F08195
:10417000502080F31188BFF34F8FBFF36F8FFEE79E
:104180002A46EEE70023324669463846FFF7C2FC6E
:10419000EBE7000070000020D441000800000000A0
:1041A000000000000000000000000000800000008F
:1041B00018000000000000000000000000000000E7
:1041C00000000000010203040607080900000000C7
:1041D0000102030464656661756C745461736B005D
:1041E0000042000800000020AC0000004820000849
:1041F000AC420008AC000020FC1D00005820000864
:104200000000000001000000D51F0008ED1F00089D
:10421000E91F0008FD1F0008E51F0008000000005E
:10422000000000000100000010000000000000007D
:104230000024F40000000000000000000000000066
:10424000000000000000000000000000000000006E
:10425000000000000000000000000000000000005E
:10426000000000000000000000000000000000004E
:10427000000000000000000000000000000000003E
:10428000000000000000000000000000000000002E
:10429000000000000000000000000000000000001E
:0C42A00000000000AAAAAAAA000000006A
:04000005080000ED02
:00000001FF
