:020000040800F2
:1000000028470020010100085B1B0008CB1A0008EC
:10001000591B00089506000869240008000000002C
:100020000000000000000000000000009520000813
:1000300097060008000000005D1B00081901000879
:100040001B0100081B0100081B0100081B01000820
:100050001B0100081B0100081B0100081B01000810
:100060001B0100081B0100081B0100081B01000800
:100070001B0100081B0100081B0100081B010008F0
:100080001B0100081B0100081B0100081B010008E0
:100090001B0100081B0100081B0100081B010008D0
:1000A0001B0100082D2100081B0100081B0100088E
:1000B0001B0100081B010008392100081B01000872
:1000C0001B0100081B0100081B010008C51F0008D8
:1000D0001B0100085D2400081B0100081B0100082B
:1000E0001B0100081B0100081B010008DFF80CD0F1
:1000F00000F040FA004800478D2D000828470020F6
:100100000648804706480047FEE7FEE7FEE7FEE7B1
:10011000FEE7FEE7FEE7FEE7FEE7FEE7E520000874
:10012000ED000008202A04DB203A21FA02F0002129
:10013000704721FA02F3D040C2F1200291400843F7
:1001400019467047D2B201E000F8012B491EFBD2DC
:1001500070470022F6E710B513460A4604461946D2
:10016000FFF7F0FF204610BD421C10F8011B0029CC
:10017000FBD1801A704730B50B4601460020202283
:10018000012409E021FA02F59D4205D303FA02F5A4
:10019000491B04FA02F52844151EA2F10102F1DC04
:1001A00030BD2DE9F05F0546002092469B4688460B
:1001B0000646814640241BE02846414647462246E3
:1001C000FFF7B0FF53465A46C01A914110D311466B
:1001D0001846224600F0E0F92D1A67EB01084F4659
:1001E00022460120002100F0D7F917EB00094E410B
:1001F000201EA4F10104DFDC484631462A4643466E
:10020000BDE8F09F2DE9FE4F804681EA0300C00F54
:100210000C46009021F0004123F00045B8EB0200AD
:10022000A94105D24046214690461C460B4602464F
:1002300023F00040104347D0270DC7F30A00C3F353
:100240000A510290401A019040286BDAC3F3130060
:1002500040F4801B0098924620B10023D2EB030AA1
:1002600063EB0B0B01985946C0F14002504600F079
:1002700093F906460D4650465946019A00F09BF9FF
:1002800010EB08006141002487EA115284EAE77309
:100290001A4340D0009A62B3019A012A4FEA0752EA
:1002A00015DC001B61EB02014FF0004202EA07522D
:1002B000CDE90042001C41F5801132462B4600F08A
:1002C0009BF903B0BDE8F08F40462146F9E7001BDB
:1002D00061EB0201001C41F5801300185B412018FE
:1002E000A2F5001747EB030140EAD570B6196D413E
:1002F00011E06D084FEA360645EAC0754FEA07522D
:10030000001B61EB0201001C41F5801149084FEA16
:1003100030000019514132462B4603B0BDE8F04F82
:1003200000F05BB90098012240000023D0EB0202EC
:1003300063EBE073009821464FEAE074B8EB0000ED
:1003400061EB0401E9E783F000435BE781F00041E2
:1003500058E72DE9FE4F81EA030404F0004421F040
:10036000004100944FF0000B23F0004350EA0104D9
:100370005ED052EA03045BD0C3F30A54C1F30A55BA
:100380002C44A4F2F3340194A0FB0254C1F31301F2
:1003900041F48011C3F3130343F4801301FB0244BF
:1003A00000FB034E840A970A44EA815447EA8357C4
:1003B000A4FB076802958D0A05FB07854FEA932C7D
:1003C00004FB0C542705029D4FEA065847EA1637EE
:1003D000B5EB08056EEB070C870E920E47EA811706
:1003E00042EA8312A7FB0201B6EB0B0164EB0004A7
:1003F0002B0D43EA0C335E1844EB1C50DA46514691
:10040000E7FB0201C5F313044FEA0B3343EA14532D
:100410004FEA0432019C43EA0603A4F10C0402945F
:10042000009CCDE900B400F0E7F803B0BDE8F08F20
:1004300000200146F9E72DE9F04D81EA030404F0BC
:10044000004B21F0004514464FF0000A23F0004114
:1004500050EA050220D054EA01021DD0C5F30A5724
:100460000246C5F31303C1F31300C1F30A5640F467
:10047000801543F48013A7EB0608101BD64608F23C
:10048000FD3873EB050002D308F1010801E0921872
:100490005B41B8F1000F03DA00200146BDE8F08DA2
:1004A00000204FF48011064684460EE0171B73EBC4
:1004B000050705D3121B63EB050306434CEA010C49
:1004C00049084FEA300092185B4150EA0107EDD12C
:1004D00052EA030012D082EA040083EA05010843CD
:1004E00005D0101BAB4106D20122002306E00022FA
:1004F0004FF0004302E06FF0010253101AEB0600C8
:100500004CEB085110EB0A0041EB0B01BDE8F04D3C
:1005100000F063B8C1F30A52C1F3130140F2FF3394
:1005200041F480119A4202DA00200146704740F2FD
:1005300033439A42A2F2334202DC5242FFF7F2BD49
:1005400000F02AB830B5041E71F1000404DB4FF04E
:100550000044404264EB0101141E73F1000405DB0A
:100560001C464FF00043524263EB0403994208BF1C
:10057000904230BD064C074D06E0E06840F00103B4
:1005800094E8070098471034AC42F6D3FFF7B2FD69
:100590003830000858300008202A04DB203A00FADE
:1005A00002F1002070479140C2F1200320FA03F3CA
:1005B000194390407047202A06DBCB17203A41FAB6
:1005C00002F043EAE07306E041FA02F3D040C2F1E0
:1005D0002002914008431946704710B5141E73F16C
:1005E000000408DA401C41F1000192185B411A43F3
:1005F00001D120F0010010BD2DE9F04D92469B463F
:1006000011B1B1FA81F202E0B0FA80F220329046E4
:10061000FFF7C2FF04460F4640EA0A0041EA0B0119
:1006200053465A46084313D0114653EA010019D0E5
:10063000C8F140025046FFF775FD05460E4650468C
:1006400059464246FFF7A8FF084305D0012004E0C1
:1006500020463946BDE8F08D0020054346EAE076A5
:100660002C4337430A986305E40AA0EB08000022F4
:10067000FD0A44EA47540A3002D500200146E9E762
:10068000010510196941DDE9084500196941BDE816
:10069000F04DA2E7FEE7704710B590F82110002456
:1006A000022903D00421816301243DE001680A6826
:1006B00022F00E020A6001680A6822F001020A6054
:1006C0001A4A0168914201D1012121E0174A1432EE
:1006D000914201D110211BE0144A2832914201D1EC
:1006E000891515E0114A3C32914201D189140FE07D
:1006F0000E4A5032914202D14FF4803108E00B4A49
:100700006432914202D14FF4801101E04FF08071C8
:10071000064A083A5160012180F82110002180F832
:100720002010416B01B18847204610BD08000240EF
:100730002DE9F84FDFF8B891002409F1040A0AF115
:10074000040B23460F270BF1040EC9E00125A54039
:100750002A40AA427DD1674ED1F804C0ACEB06080E
:10076000B44532D014DCBCF1030F3AD009DCBCF143
:10077000000F2AD0BCF1010F1CD0BCF1020F31D107
:100780001DE0BCF1110F17D0BCF1120F2AD119E0F6
:10079000B8F5881F19D006DCB8F5803F15D0B8F53C
:1007A000801F1FD111E0B8F5001F0ED0B8F5041F4F
:1007B00018D10AE0CB6815E0CB681B1D12E0CB68AE
:1007C00008330FE0CB680C330CE08B682BB1012BA6
:1007D0004FF0080303D0456104E0042302E0056103
:1007E00000E00023FF2A01D8064601E000F10406DC
:1007F0004FEA840501D9A5F12005D6F8008007FA53
:1008000005FC28EA0C0803FA05F548EA0508C6F8CD
:1008100000804D68ED0062D5374DAE6946F00106A7
:10082000AE61AD6924F0030605F001050095334D76
:1008300006EB050CDCF80850A607360F07FA06F899
:1008400025EA0805DFF8B880404503D14FF00008DD
:1008500017E044E0DFF8AC80404502D14FF00108DA
:100860000FE0DFF8A480404502D14FF0020808E015
:10087000DFF89880404502D14FF0030801E04FF0C7
:10088000040808FA06F848EA0508CCF808804D681C
:10089000D9F80060ED034D4601D5164300E09643BC
:1008A0002E604D68DAF80060AD03554601D5164359
:1008B00000E096432E604D68DBF80060ED025D4677
:1008C00001D5164300E096432E604D68DEF80060C7
:1008D000AD02754601D5164300E096432E60641CB8
:1008E0000D682A46E5407FF431AFBDE8F88F00007F
:1008F00000040140000011100010024000000140FF
:1009000000080140000C01400010014000140140AB
:100910000AB1016170470904FBE7000001488068E3
:1009200070470000004200200248816802781144AC
:100930008160704700420020074810B5016841F00F
:1009400010010160032000F08FF8002000F006F88D
:1009500000F03EF8002010BD0020024000B5014626
:1009600087B000221E2000F05FF81E2000F04EF835
:100970001348C16941F00401C161C06905A900F0D3
:1009800004000690684600F017F900F035F90D49AB
:100990004000B0FBF1F10D480B4A491E0260416076
:1009A00040F2E7320021C0E90321816000F0BCFD84
:1009B00010B1012007B000BD044800F0EFFDF9E7D9
:1009C0000010024040420F0000080040E8420020B2
:1009D0000C4808B5816941F001018161816901F02C
:1009E00001010091C16941F08051C161C06900F00D
:1009F000805000900448416821F0E06141F00071AE
:100A0000416008BD0010024000000140002809DBE1
:100A100000F01F02012191404009800000F1E02018
:100A2000C0F8001170470000F0B40E4B1B680C4674
:100A3000C3F30223C3F10705042D00D90425191DB2
:100A4000072901D2002300E0DB1E012606FA05F18A
:100A5000491E214099409E40761E16403143F0BC0D
:100A600001F016BD0CED00E0064900F00702086831
:100A70004FF6FF03184040EA0220034A1043086083
:100A8000704700000CED00E00000FA052DE9F0478A
:100A90000F46050061D0434E306800F00700B842B1
:100AA00009D2306820F0070038433060306800F029
:100AB0000700B84251D128683B4C810712D5400746
:100AC00003D5606840F4E06060602878000703D5D3
:100AD000606840F4605060606068A96820F0F000D1
:100AE000084360602878C00728D06868012810D0C3
:100AF0002168022810D0890700292EDA616821F0C8
:100B0000030101436160FFF709FF804641F2883924
:100B10000DE021688903EFE78901EDE7FFF7FEFEAD
:100B2000A0EB0801494502D90320BDE8F0876068C1
:100B3000696800F00C00B0EB810FEFD1306800F075
:100B40000700B8420BD9306820F007003843306006
:100B5000306800F00700B84201D00120E5E72878AE
:100B6000400705D56068E96820F4E06008436060EC
:100B70002878000706D56068296920F4605040EAAB
:100B8000C100606000F058F86168084AC1F30311C1
:100B9000515CC8400649086006480068FFF7DEFE61
:100BA0000020C2E700200240001002401E30000872
:100BB0000C420020044200200F2202600C4A5368BD
:100BC00003F003034360536803F0F003836053684A
:100BD00003F4E063C36052684FF4E06303EAD202B7
:100BE00002610448006800F00700086070470000D8
:100BF000001002400020024004480549006849688E
:100C0000044AC1F30221515CC84070470C420020E5
:100C1000001002402E300008044805490068496869
:100C2000044AC1F3C221515CC84070470C42002005
:100C3000001002402E30000812A185B00FC98DE8C7
:100C40000F0014A0144A006804905168134801F082
:100C50000C03042B10D0082B0ED1C1F38343C9031E
:100C60001DF803000AD5516804AAC1F34041515C44
:100C70000A4A5043B0FBF1F005B0704708494843B9
:100C8000FAE7000002030405060708090A0B0C0D29
:100C90000E0F1010010200000010024000127A0036
:100CA00000093D002DE9F84F040070D02078C04DB8
:100CB000C00749D06868C0F38100012807D0686880
:100CC000C0F38100022809D16868C00306D52868EE
:100CD000800339D560680028E7D035E06068B0F55A
:100CE000803F0BD010B1B0F5A02F11D0286820F4B0
:100CF00080302860286820F4802002E0286840F4D2
:100D000080302860606890B1FFF708FE06460AE070
:100D1000286840F480202860F0E700BFFFF7FEFD60
:100D2000801B642873D828688003F7D50CE0FFF790
:100D3000F5FD064605E000BFFFF7F0FD801B6428C7
:100D4000F0D828688003F7D420789A4E80074FF0B7
:100D500001094FF0000839D5686810F00C0F07D072
:100D60006868C0F38100022809D16868C00306D40E
:100D70002868800714D52069012808D110E020696F
:100D8000B0B1C6F80090FFF7C9FD074605E00AE1DB
:100D9000FFF7C4FDC01B0228C4D828688007F7D518
:100DA0002868616920F0F80040EAC10028600DE081
:100DB000C6F80080FFF7B2FD074604E0FFF7AEFD7E
:100DC000C01B022823D828688007F7D420780007A2
:100DD0002CD57948A169D9B1C0F80090FFF79EFDE4
:100DE000074604E0FFF79AFDC01B02280FD8686A87
:100DF0008007F7D571484FF4FA510068B0FBF1F065
:100E0000009000BF0098411E0091FAD20EE080E0F1
:100E1000C0F80080FFF782FD074604E0FFF77EFD83
:100E2000C01B022875D8686A8007F7D4207840076D
:100E300060D5E8690027C00008D4E86940F0805018
:100E4000E861E869012700F0805000905C48016883
:100E5000C90513D40168834641F480710160FFF72E
:100E60005DFD824606E000BFFFF758FDA0EB0A00DB
:100E700064284ED8DBF80000C005F5D5E0680128ED
:100E80000AD008B1052813D0286A20F00100286292
:100E9000286A20F0040002E0286A40F0010028627D
:100EA000E06841F2883B98B1FFF738FD82460BE0DD
:100EB000286A40F004002862EEE700BFFFF72EFD2D
:100EC000A0EB0A0159455AD8286A8007F6D50CE0EC
:100ED000FFF724FD824605E0FFF720FDA0EB0A01A5
:100EE00059454CD8286A8007F6D41FB1E86920F02C
:100EF0008050E861E06988B36968C1F38101022923
:100F000044D00228C6F8608004D0FFF707FD0446ED
:100F100038E034E0FFF702FD074604E0FFF7FEFC8F
:100F2000C01B02282BD828688001F7D4206AB0F5AE
:100F3000803F05D16868A16820F4003008436860EC
:100F4000D4E908010843696821F474110843686012
:100F5000C6F86090FFF7E2FC044606E025E000BF1B
:100F6000FFF7DCFC001B022809D828688001F7D5B0
:100F70001BE000BFFFF7D2FC001B022802D90320B0
:100F8000BDE8F88F28688001F4D40EE00128F7D07E
:100F90006868226A00F48031914204D1616A00F4E9
:100FA0007010884201D00120EAE70020E8E7000045
:100FB0000010024000004242800442420C420020E5
:100FC000007000407047000038B504460068426871
:100FD0008168C9434B0606D5CB0704D1D3435B06D2
:100FE00001D4216C05E08B0708D4D3431B0605D43C
:100FF000616C01B02046BDE8304008478B0601D542
:101000004B0646D4D3439B0643D44B060AD494F8EC
:101010005130032B3ED0636D43F004036365C36816
:1010200083680093890609D4616D41F0010161650F
:1010300081680091016821F040010160606D002825
:1010400027D02068416821F0E0014160012084F848
:101050005100900722D02068416821F003014160CF
:10106000104DE06C40B14563E06CFFF715FB18B123
:10107000606D40F040006065A06C002809D04563B9
:10108000A06CFFF709FB002803D0606D40F0400022
:10109000606538BDC1688068009038BD2046FFF7A4
:1010A00091FF38BDD11F000870B5040005D00025A0
:1010B000A56294F8510010B106E0012070BD84F8DB
:1010C0005050204600F02EF8022084F8510020688D
:1010D000016821F040010160D4E901010843D4E92D
:1010E00003121143084361690843218B01F4007125
:1010F0000843E1690843216A0843A16A084321685B
:101100000860A069042101EA104021684860206855
:10111000C16921F40061C1616565012084F8510055
:10112000002070BD30B585B0002400940194029475
:1011300003940068184988422BD11848816941F40A
:1011400080518161816901F480510491816941F08C
:10115000040181618069124D00F004000490A02018
:101160000090022001900320039069462846FFF773
:10117000DFFA4020CDE90004694628460294FFF7D3
:10118000D7FA002211462320FFF74EFC2320FFF759
:101190003DFC05B030BD00000030014000100240B1
:1011A000000801402DE9F84F044690F85000002750
:1011B0001D461646894601280DD04FF0010B84F8D4
:1011C00050B0FFF7ABFB804694F85100BA460128B7
:1011D00004D002278EE00220BDE8F88FB9F1000F9D
:1011E0007DD0002E7BD0032084F85100C4F854A099
:1011F000C4F83090A686E686C4F838A0A4F83CA0CF
:10120000A4F83EA0C4F844A0C4F840A0A068B0F57B
:10121000004F04D12068016841F4804101602068DA
:101220000168490603D4016841F040010160E068AB
:10123000B0F5006F606803D030B3012E24D040E0D9
:1012400008B1012E1CD1206B21680088C86006E01F
:1012500020688168890709D5216B0988C160206BE6
:10126000801C2063E08E401EE08609E0FFF756FBFD
:10127000A0EB0800A84202D3681C01D031E07DB386
:10128000E08E0028E4D11FE0206B2168007808730D
:1012900006E020688168890709D5216B0978017308
:1012A000206B401C2063E08E401EE08609E0FFF7C3
:1012B00035FBA0EB0800A84202D3681C01D010E067
:1012C00075B1E08E0028E4D142462946204600F060
:1012D00087FE08B120206065A06820B107E008E023
:1012E000FFE7032706E02068C16880680090606D12
:1012F00000B1012784F851B084F850A038466BE75C
:101300002DE9F84F044690F8500000270A9E1D462C
:1013100092468B464FF0010901280ED0012084F837
:101320005000FFF7FBFA804694F8510061680128ED
:101330000CD0B1F5827F07D102E00220BDE8F88F22
:10134000A16809B9042801D00227C2E0BBF1000F4F
:1013500027D0BAF1000F24D01DB394F8510004280F
:1013600002D0052084F8510000206065C4F838A040
:10137000E587A587C4F830B0E586A586206460645B
:1013800020680168490603D4016841F0400101600A
:10139000E068B0F5006F606805D0E8B3012D46D075
:1013A0007FE0012795E008B1012D39D1206B21683C
:1013B0000088C860206B801C2063E08E401EE086A1
:1013C0002EE02068816889070FD5E18E69B1B9F1F7
:1013D000010F0AD1216B0988C160206B801C20633A
:1013E000E08E401EE0864FF0000920688168C90742
:1013F0000CD0E18F51B1C068A16B0880A06B801C3C
:10140000A063E08F401EE0874FF00109FFF786FAE6
:10141000A0EB0800B04200E009E001D3701C50D1FD
:10142000E08E0028CDD1E08F0028CAD13FE0206BAC
:10143000216800780873206B401C2063E08E401EFA
:10144000E0862EE02068816889070FD5E18E69B1BA
:10145000B9F1010F0AD1216B09780173206B401C8F
:101460002063E08E401EE0864FF00009206881680E
:10147000C9070CD0E18F51B1C068A16B0870A06B97
:10148000401CA063E08F401EE0874FF00109FFF78A
:1014900045FAA0EB0800B04202D3701C01D010E066
:1014A0007EB1E08E0028CDD1E08F0028CAD142461F
:1014B0003146204600F094FD28B1012720206065C8
:1014C00007E0032705E0A06818B92068C1688068B4
:1014D0000090012084F85100002084F85000384624
:1014E0002CE77047704770B590F83C20012A19D05E
:1014F000012400F83C4F0222427050F83C3C5A68EC
:101500009D6822F070060A684968324325F080051C
:1015100029435A6050F83C2C9160447000210170BE
:10152000084670BD022070BD10B5040003D094F8C9
:101530003D0010B107E0012010BD002084F83C0000
:10154000204600F00DF8022084F83D00211D20689F
:1015500000F0F8FD012084F83D00002010BD0000DF
:1015600008B500680B49884212D10B48816941F4E3
:10157000006181618069002200F4006000901146E2
:101580001920FFF751FABDE808401920FFF73EBACD
:1015900008BD0000002C0140001002400168CA682C
:1015A00042F00102CA600068816801F00701062963
:1015B00003D0016841F0010101600020704770B55F
:1015C000044690F83C00012817D0012584F83C50CF
:1015D000022084F83D002068826822F0770222F41D
:1015E0007F4282600868502830D00DDC20284DD022
:1015F00005DC98B310283BD148E0022070BD3028AC
:1016000044D0402834D139E0602828D0702806D052
:10161000B0F5805F2CD0B0F5005F29D10AE0CB682F
:10162000D1E90121206800F0C3FD2068816841F004
:10163000770109E0CB68D1E90121206800F0B8FD0D
:101640002068816841F48041816011E0CA6849687E
:10165000206800F0BFFD5021206807E016E0CA684E
:101660004968206800F0C7FD6021206800F0AAFDED
:1016700084F83D50002084F83C0070BDCA68496879
:10168000206800F0A7FD40212068EFE722680146AE
:101690001046EBE7704770B50446006801694FF0EB
:1016A0000005C943890715D4C168C943890711D406
:1016B000E91E0161012020772068806980072046AB
:1016C00002D0FFF7E7FF04E000F098F8204600F0B2
:1016D00096F8257720680169C943490717D4C1687E
:1016E000C943490713D46FF0040101610220207738
:1016F0002068806910F4407F204602D0FFF7CAFFBF
:1017000004E000F07BF8204600F079F825772068A7
:101710000169C943090716D4C168C943090712D42E
:101720006FF008010161042020772068C0698007FC
:10173000204602D0FFF7AEFF04E000F05FF820463D
:1017400000F05DF8257720680169C943C90617D400
:10175000C168C943C90613D46FF0100101610820A4
:1017600020772068C06910F4407F204602D0FFF740
:1017700091FF04E000F042F8204600F040F82577A1
:1017800020680169C943C90708D1C168C943C907AD
:1017900004D1891E0161204600F032F820680169F9
:1017A000C943090609D4C168C943090605D46FF0C5
:1017B000800101612046FFF794FE20680169C9435A
:1017C000490609D4C168C943490605D46FF04001F0
:1017D0000161204600F01EF820680169C9438906AE
:1017E0000BD4C168C943890607D46FF02001016199
:1017F0002046BDE87040FFF775BE70BD704770476A
:1018000000680349884201D1FFF78EB87047000095
:10181000000800407047704770B5026804461068C1
:10182000D168536910F00F0F50D003F0010501F497
:10183000907635435DD0C20705D0CA0503D5E26B6B
:1018400042F00102E263420705D5DA0703D0E26BFA
:1018500042F00202E263820705D5DA0703D0E26BA9
:1018600042F00402E263020705D5DA0703D0E26B17
:1018700042F00802E263E26B002A33D0800604D50E
:10188000880602D5204600F0DEFC20684069E16B46
:10189000C0F38010090700D428B3204600F0C5FC2F
:1018A0002068416949061AD5416921F0400141612A
:1018B000606BA0B11B494163606BFEF7EDFE002831
:1018C00010D0606B416BBDE870400847830610D5AF
:1018D0008B060ED52046BDE8704000F0B4BC204613
:1018E000FFF799FF70BD2046FFF795FF0020E063EA
:1018F00070BD030606D50B0604D52046BDE8704032
:1019000000F048BD4006F3D54806F1D5D168204621
:1019100021F04001D160202184F8391000F0D4F882
:1019200070BD00001B22000870B5040004D094F8BC
:101930003900002510B106E0012070BD84F8385050
:10194000204600F023F8242084F839002068C1687C
:1019500021F40051C160204600F0C0FC20680169FC
:1019600021F4904101612068416921F02A0141611F
:101970002068C16841F40051C160E563202084F80B
:10198000390084F83A00002070BD000030B585B001
:10199000002400940194029403940068184988423A
:1019A0002CD11848816941F480418161816901F439
:1019B00080410491816941F0040181618069124D87
:1019C00000F0040004904FF4007000900220019099
:1019D0000320039069462846FEF7AAFE2815CDE9A4
:1019E0000004694628460294FEF7A2FE0022114632
:1019F0002520FFF719F82520FFF708F805B030BDBE
:101A000000380140001002400008014070472DE9F5
:101A1000F843044690F839001F4616460D46202824
:101A200050D1A5B19EB194F8380001284AD00120C8
:101A300084F838004FF00008C4F83C80212084F876
:101A40003900FEF76BFFA6848146E68426E001207C
:101A5000BDE8F883E08C401EE084A0684B46B0F5FA
:101A6000805F4FF000024FF080012046009703D0C6
:101A700000F0C1FCE8B90DE000F0BDFCC8B9288851
:101A80002168C0F308004860206908B16D1C05E0BA
:101A9000AD1C03E0216815F8010B4860E08C0028BC
:101AA000D8D14B46002240212046009700F0A3FCED
:101AB00008B10320CCE7202084F8390084F838806E
:101AC0000020C5E70220C3E77047FEE70C480B493A
:101AD0004FF4007201604FF4827141600021816017
:101AE000C1600161C0E905123822C0E907214162E5
:101AF00081620A21C162FFF7D7BA000000300140BD
:101B00001042002010B586B00024124800940194C1
:101B10000294039404940E490594016048F69F4191
:101B2000C0E901141621C0E9031444618461FFF780
:101B3000FBFC4FF48050009069460648FFF73FFDDC
:101B4000049404A903480594FFF7CDFC06B010BD2A
:101B5000002C014068420020FEE7704770470000FB
:101B60007CB500F069F9FF2000248DF80000651EA7
:101B70002B46012269465048FFF714FB641C0A2CCF
:101B8000F6DB00F051F900F079F9002803DA00F0F3
:101B900053F928467CBD2C462B4606224749464829
:101BA000FFF700FB00F02AF9012858D100F066F990
:101BB000002854DB414923460622891D3E48FFF791
:101BC000F1FA00F01BF9012804D000F035F96FF0AC
:101BD00001007CBD042101A800F0A8F8002804DA67
:101BE00000F02AF96FF002007CBD9DF80600C007E6
:101BF00003D09DF80700AA2804D000F01DF96FF06B
:101C000003007CBD00F03AF9002828DB2B4923466D
:101C100006220C312848FFF7C5FA00F0EFF801283A
:101C200004D000F009F96FF004007CBD00F026F943
:101C3000002814DB21492346062212311E48FFF7F3
:101C4000B1FA00F0DBF830B10128DBD000F0F4F895
:101C50006FF005007CBD00F011F9002803DA00F0F8
:101C6000EBF820467CBD1549234606221831124860
:101C7000FFF798FA00F0C2F820B100F0DDF86FF03D
:101C800006007CBD042101A800F050F8002804DA09
:101C900000F0D2F86FF007007CBD9DF8040003212E
:101CA000B1EB901F04D000F0C7F86FF008007CBDC6
:101CB00000F0C2F800207CBD10420020F42F000884
:101CC0007CB5044600F0B0F800F0D8F84FF0FF35CE
:101CD000002803DA00F0B0F828467CBD10A12B469E
:101CE000D1E90001CDE90001200E8DF80100200CA2
:101CF0008DF80200200A8DF803008DF804400622BA
:101D000069460948FFF74EFA00F078F820B100F074
:101D100093F86FF001007CBD00F08EF800207CBDD0
:101D20005200000000FF0000104200207CB5054674
:101D3000FF200C468DF804004FF0FF3608E0012329
:101D40002A4601A904480096FFF7DAFA641E6D1CC2
:101D5000002CF4D100207CBD1042002038B5044690
:101D600000F062F8FE2000F06FF8002804DA00F0BE
:101D700063F84FF0FF3038BD4FF400712046FFF795
:101D8000D5FF002804DA00F057F86FF0010038BDE5
:101D900002216846FFF7CAFF002804DA00F04CF879
:101DA0006FF0020038BD00F047F8002038BD000099
:101DB00038B500F039F84FF0FF34234606220D49BC
:101DC0000D48FFF7EFF901216846FFF7AFFF002844
:101DD00003DA00F031F8204638BD00F00FF820B1EA
:101DE00000F02AF86FF0010038BD00F025F800205F
:101DF00038BD000018300008104200203EB5FF201A
:101E00008DF808004FF0FF34012301AA02A905480C
:101E10000094FFF775FA9DF804000006F4D49DF8CD
:101E200004003EBD10420020002220210148FEF7A0
:101E30006FBD0000000C0140012220210148FEF787
:101E400067BD0000000C01403EB50446FF208DF840
:101E500008004FF0FF35012301AA02A906480095AA
:101E6000FFF74EFA9DF80400A04203D0FF28F2D0FD
:101E700028463EBD00203EBD1042002008B501218D
:101E80006846FFF753FF002802DA4FF0FF3008BD25
:101E90009DF80000FF28F2D1002008BD7CB5044663
:101EA000FFF7C2FFFFF7EAFF4FF0FF35002803DA24
:101EB000FFF7C2FF28467CBD10A12B46D1E90001E7
:101EC000CDE90001200E8DF80100200C8DF80200F4
:101ED000200A8DF803008DF804400622694609485F
:101EE000FFF760F9FFF78AFF20B1FFF7A5FF6FF05A
:101EF00001007CBDFFF7A0FF00207CBD5900000061
:101F000000FF0000104200203EB50446FFF78CFFA2
:101F1000FC208DF8000019A04FF0FF3500680190FB
:101F20002B46012269461648FFF73CF92B464FF431
:101F3000007221461248FFF735F92B46022201A90B
:101F40000F48FFF72FF9012102A8FFF7EFFE9DF8D8
:101F5000080000F01F00052803D0FFF76DFF28469A
:101F60003EBDFFF78BFF002804DAFFF765FF6FF037
:101F700001003EBDFFF760FF00203EBDFFFF0000F7
:101F8000104200201CB5FFF74FFFFD208DF8000028
:101F90004FF0FF342346012269460948FFF702F952
:101FA000012101A8FFF7C2FEFFF768FF002803DA4E
:101FB000FFF742FF20461CBDFFF73EFF00201CBD7F
:101FC000104200200148FEF7FFBF00001042002031
:101FD00010B5406A0021C187C186FEF7F3FF10BD2E
:101FE00038B50B46009204460022802100F008F824
:101FF000002804D0606D40F020006065032038BDEB
:102000002DE9F0411D4617460E460446DDF81880BE
:1020100008E0681C06D0FEF781FCA0EB0800A8428F
:102020000BD255B12068806836EA000030D000201D
:10203000B842EED10020BDE8F0812068416821F06F
:10204000E00141606068B0F5827F0BD1A068B0F517
:10205000004F02D0B0F5806F04D12068016821F0F4
:1020600040010160A06AB0F5005F09D120680168F5
:1020700021F4005101602068016841F400510160C1
:10208000012084F85100002084F850000320D2E79A
:102090000120CDE7704730B58FB028216846FEF7A4
:1020A00058F814210AA8FEF754F801210804CDE9D4
:1020B00000100024029402250491CDE907504FF44A
:1020C000E01009906846FEF7EDFD0F20CDE90A0506
:1020D0006802CDE90C4002210AA80E94FEF7D6FC56
:1020E0000FB030BD0D48016841F001010160416849
:1020F0000B4A1140416001680A4A114001600168C1
:1021000021F480210160416821F4FE0141604FF417
:102110001F0181600449C00308607047001002403D
:102120000000FFF8FFFFF6FE08ED00E00148FFF7B2
:10213000B2BA0000684200200148FFF7ACBA0000C4
:10214000E8420020F0B50268164B174C174D4FF0CF
:102150008047984205D0B84203D0A04201D0A8429F
:1021600003D122F070064A683243984205D0B84243
:1021700003D0A04201D0A84203D122F44074CA681F
:1021800022434C6922F08002224302608A68C262C4
:102190000A688262984201D10969016301214161A3
:1021A000F0BD0000002C0140000400400008004089
:1021B00010B5846842EA032224F47F440A43224390
:1021C000826010BD826822F070020A4342F007016B
:1021D0008160704710B5036A046A24F00104046248
:1021E000846924F0F00444EA021423F00A020A434A
:1021F0008461026210BD10B5036A23F0100303620C
:102200008369046A23F4704343EA023224F0A00392
:1022100043EA01118261016210BD10B5406A0021DC
:10222000C185C184FFF7F7FA10BD0168CA6822F4BE
:102230009072CA6001684A6922F001024A61202155
:1022400080F83A10704710B590F83A10222901D062
:10225000022010BD8168B1F5805F11D001690029AD
:1022600001681FD0496801F07F03816A4A1C8262BD
:102270000B70C18D491E0904090CC18518D02BE0D3
:102280000269816A002A0268526805D0D2B20A80C7
:10229000816A491C8162ECE7C2F308020A80816A04
:1022A000891CF7E74A68816A4B1C83620A70E0E781
:1022B0000168CA6822F02002CA600168CA6822F474
:1022C0008072CA6001684A6922F001024A612021D5
:1022D00080F83A10FFF79AFB002010BD2DE9F0417D
:1022E000044600680169E26821F44051114301612C
:1022F0002169A0680843616908432168CA6841F2FE
:102300000C639A430243CA6020684169A26921F4C0
:102310004071114341611E4920686425322688427C
:1023200002D1FEF779FC01E0FEF766FC00EBC0018C
:1023300001EB001160686FF018078000B1FBF0F24C
:10234000B2FBF5F2B1FBF0F37A4303EB8202B1FB8F
:10235000F0F306EB0212B2FBF5F2B3FBF5F302F079
:10236000F00202EB0312B1FBF0F3B1FBF0F0B0FBB3
:10237000F5F0784303EB800006EB0010B0FBF5F0BE
:10238000216800F00F0010448860BDE8F081000073
:102390000038014090F83910212901D002207047FF
:1023A0008168B1F5805F016A0BD04A1C0262026845
:1023B00009785160C18C491E0904090CC1840ED0F2
:1023C00017E009880268C1F308015160016900291A
:1023D000016A02D0491C0162ECE7891CFBE7016835
:1023E000CA6822F08002CA600068C16841F04001FA
:1023F000C160002070472DE9F041984617460E460F
:102400000446069D1DE0681C1BD02DB1FEF786FA20
:10241000A0EB0800A84214D92068C16821F4D0714B
:10242000C1602068416921F001014161202084F8E8
:10243000390084F83A00002084F838000320BDE811
:10244000F0812068006836EA000004D00020B8421D
:10245000D9D00020F3E70120F9E700000148FFF799
:10246000DBB90000A8420020FEE7000037B51446A3
:102470000846064B6A46214600F0ECF804466946D9
:10248000002000F07EFC20463EBD0000832D0008A9
:102490000907090E002804DB00F1E02080F8001491
:1024A000704700F00F0000F1E02080F8141D704725
:1024B00002E008C8121F08C1002AFAD1704770470D
:1024C000002001E001C1121F002AFBD1704700006B
:1024D0002DE9FF5F82B00021DDE90430020DDDF857
:1024E00040B0034318D044F61050A2F2FF324243EA
:1024F0001514119801281FD0A5EB0B00401C5FEAB2
:10250000000A4FF000064E4FDFF83891B0465046B3
:1025100015D5CAF1000413E0119801244AA301283B
:1025200001D16FEA0B010298119AC0E90031C0E9AC
:10253000024206B0BDE8F09FCBF10000DFE70446A1
:102540000021404A491842EB0450CDE9001012E046
:10255000E00707D032463B4640464946FDF7F9FEC4
:102560008046894632463B4610461946FDF7F1FE45
:1025700006460F466410002CEAD1DDE90401DDE9CE
:102580000023BAF1000F06DAFDF7E3FE42464B46A0
:10259000FDF7DFFE05E0FDF74EFF42464B46FDF737
:1025A0004AFF04460E460022284BFDF7CBFF03D816
:1025B0004FF0FF30014607E00022254B2046314610
:1025C000FDF720FEFDF7A6FF102409E0002C0ADB32
:1025D0000A220023FDF7E5FD039B30321A55641EE5
:1025E00050EA0102F2D1641C039AC4F111031444AD
:1025F000119A012A03D0012208430DD10AE00843B1
:1026000004D000204FF0110B119072E7A3EB0B05E3
:102610006D1E0DE05B4504DD4FF0000205F1010584
:1026200004E003DA4FF00002A5F10105002AECD026
:1026300002981199C0E90231C0E9004579E700002C
:10264000000014400000F03F300000000000F043A4
:102650000000E03F2DE9FF4F95B09B4689460646B6
:1026600000250FE2252877D100242746F84A0121CA
:10267000059400E0044316F8013F203B01FA03F003
:102680001042F7D130782A2811D06FF02F0330781C
:10269000A0F13002092A16D8059A44F0020402EB90
:1026A000820203EB42021044761C0590EFE759F8D2
:1026B000042B0592002A03DA504244F4005405909A
:1026C00044F00204761C30782E2816D116F8010F3B
:1026D00044F004042A280DD06FF02F023078A0F1C6
:1026E0003003092B09D807EB870302EB4303C71814
:1026F000761CF3E759F8047B761C30786C280FD0F1
:1027000006DC4C2817D068280DD06A2814D104E0C4
:10271000742810D07A280FD10DE044F400140AE098
:1027200044F4801401E044F440147278824202D1EF
:1027300004F58014761C761C307866280BD013DCE8
:10274000582877D009DC002875D04528F6D04628CF
:10275000F4D047281AD19DE118E0632835D06428C9
:1027600079D0652812D195E1702873D008DC6728EC
:10277000F1D069286FD06E280DD06F2806D1B5E052
:1027800073282CD0752875D0782874D05A4617999C
:1027900090476D1C75E1C4F30250022809D003284C
:1027A0000DD0D9F8001004280DD00D6009F10409EE
:1027B00067E1D9F80010EA17C1E90052F6E7D9F845
:1027C00000100D80F2E70D70F0E719F8041B8DF88A
:1027D000001000208DF80100EA46012003E059F8BE
:1027E00004AB4FF0FF3061074FF0000102D40DE061
:1027F00008F101018846B9420FDA8045F8DB1AF882
:1028000008100029F4D108E008F10101884681424E
:10281000FADB1AF808100029F6D105985B46A0EB00
:10282000080721463846179A00F094FA284400EB2E
:10283000080507E04DE029E10DE01AF8010B5A46C2
:1028400017999047B8F10108F7D25B462146384600
:10285000179A13E142E00A220092C4F302524FF0A9
:10286000000A022A08D059F804CB032A4FEAEC7177
:102870000AD00DE029E02AE009F1070121F0070262
:10288000F2E802C1914609E00FFA8CFC4FEAEC71C4
:10289000042A03D14FFA8CFC4FEAEC71002907DAC5
:1028A0000A460021DCF1000C61EB02012D2202E05E
:1028B000220504D52B228DF80420012203E0E20733
:1028C00001D02022F7E7904659E00A2102E01022C9
:1028D0000DE010214FF0000A00910BE010224FF0A4
:1028E000000A44F004040827009203E008224FF095
:1028F000000A0092C4F30252022A05D059F804CB10
:102900000021032A08D009E009F1070121F007029C
:10291000F2E802C1914605E01FFA8CFC042A01D1BD
:102920000CF0FF0C4FF00008220728D5702806D0C5
:10293000009B83F0100353EA0A0305D00EE0402207
:102940008DF80420012208E05CEA010206D0302262
:102950008DF804208DF8050002229046009B83F03C
:10296000080353EA0A030AD15CEA010201D16207B3
:1029700005D530228DF804204FF001087F1E58281D
:1029800004D034A003900EA802900DE036A0F9E721
:1029900053466046009AFDF704FC84460398825C27
:1029A0000298401E029002705CEA0100F0D1029889
:1029B00006A9081A00F1200A600702D524F4803421
:1029C00000E00127574502DDA7EB0A0000E00020E8
:1029D00000EB0A01009005984144401A0590E0037D
:1029E00006D45B462146179A059800F0B3F90544D2
:1029F000002706E001A85A46C05D179990476D1C54
:102A00007F1C4745F6DBE0030CD55B462146179A51
:102A1000059800F09FF9054404E030205A461799C4
:102A200090476D1C0099481E00900029F5DC08E0D5
:102A3000029802995A460078491C029117999047CA
:102A40006D1CBAF10001AAF1010AF1DC65E1000098
:102A50000928010030313233343536373839616274
:102A60006364656600000000303132333435363738
:102A700038394142434445460000000000F058F90F
:102A80000544761C307800287FF4ECAD19B0284658
:102A9000BDE8F08F620700D4062709F1070222F093
:102AA000070CFCE80223E14603F000485FEA080C4B
:102AB00002D00FF2702C0DE05FEA045C02D50FF239
:102AC000682C07E05FEAC47C02D00FF2602C01E0C2
:102AD000AFF2700C4FF0FF3823F00043CDF850C038
:102AE00065280CD006DC452809D046281DD047288B
:102AF0003DD13DE0662818D067287ED138E000211E
:102B0000112F01DB112000E0781CCDE9000106A99E
:102B10000EA8FFF7DDFCDDE90F010E9A03910021FD
:102B2000009207F1010A04914DE04FF00040009738
:102B3000CDE9011006A90EA8FFF7CAFCDDE90F02D6
:102B400003920E9B11990022DDF80CA000930492D1
:102B500011B9791C00EB010AB7EB0A0004D4C0F1EB
:102B6000FF3007F1010A0490AAEB0700019044E04E
:102B7000012F00DA01270021112F01DD112000E0D3
:102B80003846CDE9000106A90EA8FFF7A1FCDDE952
:102B90000F010E9A0391002104910092BA46210779
:102BA0000CD40399514500DA8A46BAF1010F05DDCC
:102BB000009AAAF10101515C302908D0B84202DA2A
:102BC00010F1040F06DA0121CDE9011015E0AAF198
:102BD0000101E9E7002805DC049901440491AAEB0E
:102BE000000102E0411C514500DD8A460499401A6B
:102BF000401C01904FF000400290200704D401983F
:102C0000504501DBCDF8048000208DF84F0002987C
:102C10000DF14F07B0F1004F25D02B200E900298F8
:102C20004FF0020800280CDA404202902D200E904E
:102C300007E00A210298FDF79EFA3031029007F86A
:102C4000011DB8F10001A8F10108F2DC029800288A
:102C5000EFD1791E0E980870307800F0200040F017
:102C6000450007F8020D12A8C01B00F107081498D0
:102C7000007800B1012000EB0A01019801EBE0713E
:102C800005984144401A401E0590E00306D45B4677
:102C90002146179A059800F05DF8054414980078CD
:102CA00018B15A46179990476D1CE00324D55B462E
:102CB0002146179A059800F04DF805441CE0049849
:102CC000002807DBDDE90301884203DD0098405C52
:102CD000179901E0179930205A469047049805F15A
:102CE0000105401C04900198401E019004D12E2043
:102CF0005A46179990476D1CBAF10001AAF1010AD2
:102D0000DDDC05E017F8010B5A46179990476D1C5A
:102D1000B8F10001A8F10108F4DC5B462146179ADE
:102D20000598ABE62D0000002B00000020000000FD
:102D30002DE9F041044600251E461746880404D4B8
:102D400005E039462020B0476D1C641EF9D52846A1
:102D5000BDE8F0812DE9F041044600251E4690466D
:102D6000C80301D5302700E02027880404D505E0FA
:102D700041463846B0476D1C641EF9D52846BDE86B
:102D8000F0810A68531C0B6010707047ADF5067D2A
:102D9000FDF7D2FDFFF77FF9002445488094819428
:102DA00082948394816941F020018161816901F0FD
:102DB00020018491816941F00401816180693D4D68
:102DC00000F004008490002210212846FDF7A0FDA9
:102DD000102080900120CDE981040220839080A9F9
:102DE0002846FDF7A5FCFEF771FEFEF78BFE334883
:102DF000314901604FF4E131C0E901140C21C46094
:102E0000C0E904418461C461FEF78EFD4FF4844142
:102E10002BA000F0D3F8FEF7A3FE01462CA000F093
:102E2000CDF86E1531466846FDF793F92D4D2046D5
:102E3000FFF734F8014622462BA000F0BFF805EB5F
:102E40004420FFF761F8014630A000F0B7F8FFF723
:102E500099F8014633A000F0B1F8641C2404240C56
:102E6000E5D031466846FDF774F9601EFEF728FF8D
:102E70000146621E31A000F0A1F86846FEF76EFF21
:102E8000014637A000F09AF8FEF792FF01463AA0FB
:102E900000F094F800256F462A467B59611E3CA03D
:102EA00000F08CF82D1DADB2B542F5D3FEE7000061
:102EB000001002400008014000380140A8420020F4
:102EC000776176206C656E6774682025750D0A0041
:102ED0005344434152445F496E69742025640D0A8E
:102EE00000000000000000205344434152445F575B
:102EF00072697465426567696E20253034582062B6
:102F00006C6F636B732025750D0A000053444341B9
:102F100052445F577269746544617461202530348E
:102F2000580D0A005344434152445F577269746517
:102F3000456E6420253034580D0A00005344434147
:102F400052445F52656164426567696E2025303482
:102F50005820736563746F722025750D0A00000098
:102F60005344434152445F5265616444617461203B
:102F7000253034580D0A00005344434152445F52F7
:102F8000656164456E6420253034580D0A000000E8
:102F9000736563746F72204E232530345820666F3A
:102FA00075722062797465202530347520646174EF
:102FB0006120253034580D0A000000000FB44FF492
:102FC000807100B5C1B06846FDF7C3F843AA6846F2
:102FD0004299FFF74BFA6846FDF7C6F882B26423C0
:102FE00069460348FEF713FD41B05DF814FB00008D
:102FF000A842002040000000009548000001AA8778
:103000007700000000FF6940000000FF7A00000028
:1030100000FF4900000000FF4C00000000FF00001E
:103020000000000000000102030406070809000078
:1030300000000102030400005830000800000020D6
:1030400010420000B02400086872000810420020FE
:1030500018050000C02400085249464634BD03004C
:1030600057415645666D74201400000011000100A0
:10307000803E0000AF1F0000000104000200F901C3
:103080006661637404000000A65E070064617461F9
:1030900000BD0300300D3B00A50B17303001FAA92D
:1030A0009C89002341078AAAA83110E0000A20A2C7
:1030B0007186001888ECA89C11131240D1AB001A3D
:1030C00084A8CB08BC3835330898CBF9AF08013356
:1030D0003184CA9A306390B918A9BD50150199A9D5
:1030E000AABC9D214111351210AB8201F19D00ABAC
:1030F000997702009898A0AD60130008A8982A89D3
:1031000004C1BF12A019720101909A88EF8A0010C1
:103110004004A1AB9B9834CA09C9082B771118A8A1
:10312000B0AB9E9001384494AA8C883381AAB90D23
:10313000A052541098808BA8FB8D38242014808ACC
:10314000623215B99DAAB972330193190CD0CA3AEB
:1031500089A138BD18152901A3AF9AB92376121297
:103160001198CDA0AA991AA32BC32C43259980EEC0
:10317000A909011815410290B9ACCE182288AA8A73
:1031800072231100E8ACA91A23361209C8899BCD15
:103190002984183261F23F008188529025B9CBAA68
:1031A000217216820089C9919C1884118898CB2BB2
:1031B0009344DA4AB2985B060802BBF80BCA2002B5
:1031C0003B03968D0A801419B9B1CA2E1403100955
:1031D000A10AB8CE623211C0CC9A8A242088D800C5
:1031E0001B410429A100139BBF990B5503A09F917C
:1031F000116432A29B9D0108818E12428320A83A5D
:103200003693DACCBB28521313809F91AA880814F6
:103210003813D8EBAA9C0288BABA9378270389EBB3
:10322000CBAA1A12215326A8888A3389A07AB38C94
:1032300089360121CAD8AF981811210333BB29E080
:10324000A99F0280108940371123B2DF9A01103301
:103250008032048C10840918C2AB88CA42137214DD
:10326000F8AB998913620193AD08B0BC8B1291EB56
:103270008A72141013C8AF8A8101881853019C0206
:1032800088816241A8C10C01002598DD9988290830
:10329000144222CADFFF3C00C0BA9B598214AB180B
:1032A00064126203EA9A0A8823005115A848018033
:1032B000911A9DA18A0A3324649198BFA89B387201
:1032C0000508C8098A80CB10BDA80A445292808A9A
:1032D0008CE1A99A893272828880601281BA8BD976
:1032E0002178818000BBCCEB9A192223478099A9D1
:1032F000809BA18E8882407702808888EA99193362
:10330000033252A0981811FB9D1002892334211515
:1033100010BFED8920011123A88BD8899ABE902077
:10332000A96B27118008B9B9BF090180392789081D
:1033300000138A8C32E48C2833053199C1CF8A1866
:1033400081205282A8A91C91188864C92952161894
:10335000828BD99B0072A02122809B1229D89B9935
:1033600091BE3B57021112A8FB9A8810004881D0E9
:10337000190CE89919FB9A286301011111FBBA0B8A
:10338000A009CC61919A284708009808ABC8680842
:1033900022A2998E24EC4100AA999133700311283E
:1033A000178DE11C912AB13088372114ABA02B80F6
:1033B000ACB29F30A8449831A8259B00A93099371A
:1033C000BBADBA08A87223539118C019EE18B90AF8
:1033D00099233A370438D820BB92CC7AE33AB31910
:1033E000CD011032D0409B961C0281983BF3299965
:1033F00032915890029A21F13B80C139B8113107BE
:103400009C15AB11882189868AF80B90A84012433D
:103410002082B80F13C12CE8180903296300C24B9E
:10342000C8902029FA188921DC52A9A08A2115996F
:103430008A03AA8A9012EF3013010B55C08A10023A
:10344000BC28069B88900C1328C1CA5899803490D8
:1034500061D98A42818031920C1422CA997893B939
:103460000D04891C3690888BB0AA8E2341C28C1122
:10347000E0190198229D13AC34AAB9022937C8AAD1
:103480007082888830DCB888381A27999B8C051898
:103490008991A17ABDF94000890BC358C80980D031
:1034A0001C23151228FB1990201090095409371974
:1034B000C018A920DB8150082591BD89980B827224
:1034C00004998851B21A9994BF911882440804AAA9
:1034D00089ADC9289A9A15422110E9808BD030DC39
:1034E0009829220134CB39B0120BC3BE1B05499277
:1034F000250B94BF8808BB30378128A31DE0188BAB
:1035000023EB326101100880BBB11CA9937916111D
:10351000C831B9088AF10AA92917290380819CFAC0
:10352000AC109902460928928A28FA1CA90029277A
:1035300090100010C8ACDB2989123408A032B81EE4
:10354000F29A19A80867901131D89BCA0B01A07292
:1035500032021802AE08928E10803631A228939F54
:10356000A19B9951B2559811928EA19B30B18C308C
:1035700014842C84B9C81D8098322BC25318AAA277
:103580008F90A88E91398032B96510CA9AD08BBAC3
:10359000358922032CF6430001801088DD982AA289
:1035A00058914882EA001AEA0931A96390318222CF
:1035B0001FB3A90E238952915212DB18B18CA912A4
:1035C0003828172043B800FD9A99210863138913FE
:1035D0008DC89C89A94338A3824809F91899CB91D1
:1035E00071A1438020D8BC89AC181102AB67821846
:1035F00080DB89981B16080842828ACBFA1AB22807
:103600004413BB54B928911B51A23A45128819D8CA
:10361000019D8038B27002831FB42BA10C01BA8ABD
:1036200000759280B825AF940A8020991418BC8048
:10363000BAB06DA1249931C0C12EC028AC853CB16F
:1036400043AB140D92301ED210191AB459A922BBE3
:10365000851CA840D831882989C5508CA418191018
:10366000A0152CB092004AC8D3402BB1851908A0F0
:103670001911BB821CC2280440B8B53EC0011CB160
:103680003080D9172CC01088993891F2700AB28214
:103690003B99A20DCAE43F003BEC053A0AA6113C57
:1036A000D191288AC248B2620CB201902DCA944AC4
:1036B0008802222EB2A2987DA9952980211BA0A55F
:1036C000101D1AF2032F9001003AA8820B08AAB627
:1036D0004A298390135DC8829B202DB994330A81B7
:1036E000ABBAF7582BE1823988A2202BF8081BC807
:1036F000845B9985200AA2190CD081110A33904A63
:10370000C8C5100FC182281A954899A298280AD1D5
:10371000251D8308A26899A090299C863AAA0718BB
:1037200099A1002AC3AB957AB8861A914AD08149EB
:103730008BB341A9429C939C013BA588729BA649EF
:103740009A93A23EC8028B841B023CB75BB01189DE
:10375000829A151DC211092AF3010B843CD2308BC9
:10376000940839AB9619011AA63A0800A070D9211D
:103770009B931C944BC338C040AA03AA110D042B81
:10378000F3310A9893994BA8B14328AF961A982021
:10379000D1120C00D31143002BF221901ED840AA65
:1037A000018B04208809B65BB001B853BA52E048D7
:1037B0009891AA42CB140C032AA1010C80C160800D
:1037C00088042AA14BB778C81089821B10A83298A8
:1037D0009B169B03888BAC07498B929479B00A8225
:1037E000988A059C141AC900B9235C9289038B41FD
:1037F000F260A9AA811BC159E14A830A81899936DD
:103800008998A4390CD242A9998A050B848D248801
:10381000010BD042808811A87308904B279C901907
:1038200088A0093C279838BD0439CB00A27981C013
:10383000481319D89B41A88A911874C888099C23F9
:103840001AFA290118944AD138CA9030AA2B172A9B
:103850001548C01AB039939B0AF1599828C012AD87
:103860008AD02A814301C01A58A52A24995341A21B
:103870009B078B03BB8989049F048B21089048D345
:103880000DB18C020912C071120812D818118DD214
:10389000001A9098C9FB3F004108C530AE01B23B09
:1038A0000309DC22FB8A00AE8252905190184292AA
:1038B0008D829B198A110231973BF88AA24DC02054
:1038C00080100A83838D0BD8548038921658A81123
:1038D000BB10BF11100A24B01937CA9A11D88940F9
:1038E000A02230C10ACAAD820C23358A0689003A6B
:1038F000FA0B911C0351C4389881A8EC0AAA8012D3
:1039000050020900A40DCA219844312122F8891CD3
:10391000C0AC31A27A01A1995300DA100A9050A9E3
:10392000025098121BF8209C07192280C93A869AE7
:1039300010C99928849A72B371A902CB08C90A9058
:103940001119A14248861C041988C128AC1103AA88
:1039500079C908C88B60A0103181BB35CE1099AAF7
:1039600010213270A55982809AFA0898218081131B
:1039700078B30261C911983BA927982AA0CA0AEB1B
:103980001820AB37127311ABA8989E0089380461D8
:103990001309A9BBD6243F00F20C989128112911D4
:1039A000DE8000AD03A858044331A8E8EB1B8099E2
:1039B0003813136804B92189D89DA019418339B1FE
:1039C000CBAAFB1A01BC6421312699BBB03C9518E7
:1039D00098421430B1ABF839C9810A994590381032
:1039E000F90999B819BA69274203C980AE890199C2
:1039F000A071901221AAC8399018B50F38A20909F0
:103A0000C39A1DA8FA98291172161099AA980A0249
:103A1000AB937826A11BC898328DA1B02E0102006D
:103A20001A23C27893FA182898442710AAAB988DC5
:103A3000820CA36B84101889E82099809A230821AE
:103A400023FA8A99829F92AF1A93207217888AB0BC
:103A5000BA1932920D042180F81BC83A9209A17953
:103A6000A438AB80A03ADB8251A9B89D5319471006
:103A70008ADB9928118811026814029BA09C3411DA
:103A80000CA4389CBA34BF12900939C1AA007A023A
:103A90006710A8988E194000CD38A21C8291611839
:103AA000B48D0AC1401AB0510808A0180EC038845D
:103AB00089C19C8BA8257214A98AB88B140810C1DF
:103AC0006B0311AD11909B51B09A00912CF91130FC
:103AD00019975898A40D0212731202CBBC8A800069
:103AE000011934A136A989E928029B848D329B955E
:103AF000002AFB2D81A908CA20317701B8B98A189C
:103B000088802835817191BC89CB310AB50B81B988
:103B100054A8BA629801BB802B25D2748598998CE1
:103B200098190002095014818918210439E31ABA3E
:103B300073948BA88A20A10CF02B09443700B18B19
:103B4000C89B438AB25A0410B8CB9A3110A4CD9CBA
:103B5000282699AA328089F9910E003256129A9B32
:103B6000DBAB219838B07814808A3894A83AADC17C
:103B70002C2698A9198880CE108AA073351400B914
:103B800099A8809A54A8631391CC09089000B98E23
:103B9000825002904F0E39001C42C2BA0CA056311E
:103BA0006302EA9A999A8028A813433116BE8813B3
:103BB0009A9AAB32458010B8CF99A8802A118270AA
:103BC0002713BAAE89838019111009170C9239CCCA
:103BD00098EA2B83229A113080204623A17A47034A
:103BE000889BC9AB1810229D1508C1993A13988C6F
:103BF00027209F0289A9AC0988981954245401D818
:103C0000BA9A09818A734481888A99D91990A90B33
:103C100010059BD9BCCBBB112452457401A0AA9AB4
:103C200099880034108260D89A980ABA22521730C4
:103C30002013B99DB818BABB66630290B9CB19813D
:103C4000AA893434118010179CB80C82BA4113C869
:103C5000EC89A99089AA127714B29D8931018998BB
:103C600032A3008DD9C989811A80809CD18AADA0E8
:103C70000B532719126708C89B9902008A0530A2C6
:103C800082BC8CA169B23270060898A810DB99102A
:103C9000001275046D4E4200E9ABAB198138937484
:103CA0002223DA9B889AE91A281519B089CACB0908
:103CB000EA202855152198B89E8880108A5212B1A2
:103CC000AD0899DA9B01498429B8A04933D28E10F6
:103CD000355498919BFB19801880211600CB001257
:103CE000245801A14189E1AD9A2221AC2441310738
:103CF0000AACD90A121142331080E89BC9AC489132
:103D00008349A100AFDA888AA85131263510DA9AA2
:103D10008AA0993822260088BAA88FC09A0C12244B
:103D200020B82139E0BA8CC8107701A0AA8A22985D
:103D30001AA05882240A143947988920929ECA19D9
:103D4000889800581325368AF89A9A32003015223E
:103D500002C0BE9B08821AAB264490EAAAAAA81AFF
:103D60000A37543481B8BBBC89880A235313909A0C
:103D70009FB8989B891660A22108B8999CBF816161
:103D80005581B08C9800099808522400A050021266
:103D9000AB800008361F35008FEA991080C852208A
:103DA000361599DBB91A420211116312EBAC0819EE
:103DB000A98840218388EDBB9BAAD96252240409BB
:103DC000C9A89C888828813521E18AA09AAAAB924B
:103DD00074003408A99ACBBD90507283818AA01BCD
:103DE000B0A9081C26429178840099808991AE91EF
:103DF0008BB828810DA4655390A89AEB20308012CF
:103E0000391590DC1AA0888B014402BB81EFA88988
:103E1000A92935372488B998CBAA891A0224318573
:103E2000AD2099FA0A0841032A1580BC88BC9B3151
:103E30007417889A11A989A800384423851C0600A4
:103E4000AA8118A1FA1990C18D801800345781A851
:103E50009AA999511083580212FB1C90809D000171
:103E600012ABA28DE90BA81A21773280A889B9BCC0
:103E7000090010081521BF1018E9993901821C1694
:103E800000ABA80ABD38751598BA008088B03BC051
:103E90007322931B341139001791AA19A090FF00C7
:103EA00000A898099A09573590BA08A12A120099D2
:103EB000440205BE8A34BAAB2941D31CBA00AE898C
:103EC0001000724612B90BA8908C9011091914DADF
:103ED000BC8C02019D2154B01042B0CA8C9A8172F0
:103EE0002701B98B21A0BA1C23224236989852127E
:103EF000FA0880839F8911A8BA1809A9563702CAFF
:103F00009921901811901827A8CA9A1098FC1B4262
:103F1000A2ABAB13CDBB9A52807623A0AA0888BA75
:103F2000AB20229814ADDB910C02AA9056B999707F
:103F300082A80CAA11206701A88C109109AB05304A
:103F400010133003813DA62AB983CF8820A8EA093F
:103F50009B92743501B90812B8AC2A132398042037
:103F6000ABFB20C8AC89A8AFC03119DC9A3210571E
:103F70002390BB29A9C8BA4B1382A2CE9A09BD10BF
:103F800024B87080180005B99CB829353722B9BB10
:103F9000211BBF918FE43F00233508802223EA993B
:103FA00001991818C8DB338CDCA9AB1C7712000010
:103FB0008088A9008D228388AD5083AE10A99A8194
:103FC0009ADF01901BA1CA38731700999801A8893C
:103FD000B91C4313BAAFA90A9B2005801098103A68
:103FE000F19FA90A73340480899B90CA9E013035E1
:103FF00033A80934C8AB9A3320B912BD9BACF08EFC
:1040000088116701901180AA9910AB3246920B3843
:10401000F1A92AA9BB25CCAB139889A8DB1A762471
:10402000919A1108BA99AC0931839CE009ABFA0A5C
:10403000289091BB7934B3AA892B3577028899816E
:1040400010CBCB002A35150811812309DB0890E835
:104050009D1801C98A29813637439A0905A88C2BF6
:10406000831400AA5AB903AA1F98B801CFBB18A895
:10407000B980984A5557819A088090AB8A102312CC
:104080000BFBB9AE9A090A13918A3F8582AA8A0B63
:10409000A17537809EFE4A008810809A9B201233BB
:1040A000129A4824C19D181243C19B2018FABA9A4B
:1040B0009A5173058028820811AAAB17092203BF01
:1040C00080AA19A8CE1880BB5409910AFF0F8180DD
:1040D00011008901130ACA12AF24EA1A16B809009E
:1040E000A279C8817B838C140081AD31208119AA0B
:1040F00015984891819028B1000EA229DB9819A942
:10410000F00F9109CB989B88B01D80839BD960E00C
:1041100019A00A1115DA8A30928AEA1A21B20D2200
:1041200090088249ED122033112452A823899C3231
:10413000F9131A1428041825AA310320410434A8BD
:104140003110673145A10A12B18B51A9341489127B
:104150001CB9858B084185BAAB70C29DA88A89635A
:1041600015219110129AD2AC1BB150A18C92909F44
:10417000B0BA90FF88188992B9AB1D8581080B18D9
:1041800006889C992BE8CA8AB08F0090805098CA04
:10419000811A8ADA0692350099481652243110B0F5
:1041A000A48CBF90124023800016108BA816321DDD
:1041B000B10249BAA89D915539269121330A83024B
:1041C000381AFB2619992300D9599183BFCA0811BF
:1041D0009B10154B5327810A01911ACC800088311E
:1041E0003BE6889BA99BA33BFA286814D81B8892BE
:1041F00009632102822140ECDA882B9192303A95B2
:10420000448AC12AA49BAD21DA008B8812A172B125
:1042100048AAA823AB0F878AA94090920BAC81A033
:104220002CBACFD80A99910A28256521A289992903
:10423000E19A1B811192BF1309BF9A9050AAA8312D
:104240003124A0C92C163846008021119992CF083C
:10425000904981816812134081301598ABAC88A2D7
:104260003E024631279818918A0902194711A01871
:1042700024A3AD0CC99150B80991ABBBC2CF983003
:1042800015451003000093DDAC88901100091790CC
:104290008DBAA99C87FE3D00BA31214700C908109C
:1042A000985190202126218BFA8B9AB9AC997014E1
:1042B0002202809042FBAC890889A820282751C897
:1042C0008888AB09940C4691808BA01AD0AC808C66
:1042D0003183BDA9AF880AFB89212064131289109C
:1042E00088EBBB0AAB33189815B0AFB11ADB198055
:1042F000224114849F021012579881489110C09D4A
:104300008029B28A8866803112816082AB020BDB21
:1043100018CA2258A3568808908841038C25199101
:1043200030DC18A18CB8400801A9BA9FB9DABD8A5F
:1043300045302720811980B9BC9CA84882900F93F2
:104340009C9BA88A8A2272042011E01BC8896806F7
:104350001901118802CC0CA809990070843821C376
:104360003A02E00B898819D32988E17990819B88EA
:104370006203A93589D02AE10CB01080808983BE00
:10438000BBBCB99BEF183013740281099189CCBA78
:104390002009241892E836009FA2ACAAEA9B3014A8
:1043A000102235A0A88DD00A500728013209949D0B
:1043B0008C90889A1268136211902912F98B898166
:1043C00041D02908927A831988293437A83081038B
:1043D0008AF98E91980A00981002AEBDA99CEC89CA
:1043E000312373232229838ACBEC8A288488898805
:1043F000B38FD9889A20330251248889BDBB2128E4
:10440000177100233191FA89A998AC282247288393
:10441000489008BBA8DC1902009C91092B9729BD84
:104420008061332431A251A8FA9C89A92089934C38
:10443000A399ADBCBA8CCA11302545021089CA892E
:10444000A8DC51108188DA9D8099CB0A1845133277
:104450008012A1AFACA99A4937021098923AE8A904
:104460008A18352184511231919DA900CD2804A9C3
:1044700038EBEA090BA073111210124003928A8DD7
:10448000930AF808899991CFB98C0120889311BFBC
:104490001398195559F73E000944A88900CB8A02A0
:1044A000AE98A829333336038A47A88818B0394113
:1044B000A09851F94988DA9828183582300B2734AA
:1044C000A1281293751183288AF9A99EBA81191A15
:1044D000141528AB80279A38A20A8448ABE20D1045
:1044E000A3BB19D818A924258A9A44FB8920A811AE
:1044F000B982589FD811AEA8989008312402415132
:1045000005900888AB021873313184C1CFB988098E
:10451000003986805901D20B2090827C918539190F
:1045200090E09B20DC1000408220422300C9D10E85
:104530009A91240BD353ABC8080CB90188339A0560
:1045400071C10811881000831CC10B23EE9809B9B2
:10455000DB189921484681820168BAB34DA8022828
:104560003248EB129AA88B3000C57152A0823820D5
:10457000A6489910D9211AD39B0A9E92992A2351B1
:10458000192721188AC8920E19D13811962AF0805D
:10459000199AB152EC0C35001E0A83053D91259AFB
:1045A000D838A0EB58C8808B9AD829AD32824823DE
:1045B0002448B08949908A30074008A2880CDA1351
:1045C0009E9A39A5385984103AC3050CA2080CA547
:1045D0004888B8B82FE88008309106201188A009D3
:1045E0000AF81A0D889628A99098119FC920AA1038
:1045F000AB44888420318AE8089030BCD0CAADAA88
:1046000018F83A884313135201811120A2AF836C2A
:104610009281C059AA83198DF83219830A1719A1FA
:10462000688080122A9438C0ABAC09CC18A9738179
:1046300040A0163AB10A24A08BB9A168B83CF8286A
:1046400029C0C889099CFA120A17082218B218CA88
:104650000E9099A00DD918A80009160A242A8738A7
:104660008032841AB8D8132C81A10D269889AC0108
:104670009F914A0430814907109128BA83A92AFBE7
:104680000BAA149F9228812915148019B078F80874
:104690009A800811B3143D009A823AFA01BB99FA44
:1046A0000A310509231B070988C91BB8889EF00A2F
:1046B000A889A008280359571902101589BB21B9E8
:1046C00031C07C91101188DA9CA30D980440230816
:1046D0002412811A180BE429C129EB00BC9B90110C
:1046E0005133440500381085BE888A018A880DA39D
:1046F0007892BE89BB019B834401359C1799109821
:1047000021BAE1099C88BA8BA09EA8452A234216AB
:1047100001232AB08025808B9F86399200D9899BFE
:10472000A9D9284541923123110F830BA31DB81934
:10473000A129A48FF9108A224883250819B4A88ECC
:10474000CA021B8002318290EFCA09CB9089713274
:10475000018119BB048DA290208EB19DB909BF8142
:104760000A1C8632388240820981AD2020162291AF
:104770004BC40AE00BC9A8100B523708110983B8C3
:104780007380A30AAABBC88C048EA011AA23287325
:1047900017288801241D390089C89A8828AAC013BF
:1047A0001CB8FFAA989E90093421921C1103BB7972
:1047B00013B8AA71DBA81A929EAA09028B464483F9
:1047C000199210A910106102701400C980CABB8C24
:1047D000918828742482A93A8509307193080AB017
:1047E000FA8A8980CB301511202301D18E808AA1CD
:1047F00012588B8401BFB92BD8CA2BF90809104174
:10480000B01908272110C228E91991FBBD19A890F9
:10481000898832986712019118C01B1372010833FE
:1048200032FC09A99C9099003947240199A9109854
:1048300070212531C999EBB98AA90A348A226424E6
:1048400031B1BA0CD18C21610388899AEABC2889DC
:10485000FBAA21092837A29C9B2015004113AD110A
:1048600082ADBD9A9BB94A4314AA7114888081898C
:10487000990A2702495402AAAAB9BB9E2032CB4109
:10488000550108989988082177008108AABA8D38BF
:10489000F19B4A1270144000010509A990B89CA927
:1048A0004077A01812BBBB905AD99989211BA272DC
:1048B00001B90BBAA24C54030129B1D8AF9B89C9E5
:1048C0003A14994052039A9860A1E93A2126182295
:1048D00000C19AACC98D002284092410A19E010A4E
:1048E00082227330942099BE9C138BBE4225020015
:1048F00039938AEA0ACA9B1123A84802FDBD998010
:10490000AB995701903814A0AA892399116201210B
:1049100051E8BC9C98A9BD104381281092EAAB30A5
:1049200070861800542282818AC089FB9B391382C9
:104930000A3223DADC38A010191406090A9C0799F8
:10494000AA29342422408408FBAA8921D9BB3146F4
:10495000B89A19C89CAABB9C9A3672010001000B38
:1049600020C23A8013000E84CCCF8820B9E93802E7
:10497000921C8109B16B52A2997024801833A1CB8B
:104980008A88FC9A2000804590B81A919A9C43230B
:10499000917046B132204200AB32A3CE28548088B9
:1049A0008001AACBAB00AAB05A43840118DFBA99A0
:1049B0002B339289673289B832AABC898A0014786D
:1049C000A2B9DAAC8A13CEA8488300915831C53A0F
:1049D0003385BB6034819932A8FB0A9AB99C313384
:1049E00081B03280E99E81123C7702993082CA8A76
:1049F00003099D1223999C02D9CA9C98898073143B
:104A0000A19DA8B80C41A39C5023A8480681AC895D
:104A1000A8A00B2A0789B94188DBAB21F09C0012C2
:104A20009B53270A0831A00852208291433299DF14
:104A30008089CC0A00913035039EB888AB435681FB
:104A40001215108A09C8C909081902934DB38BAF12
:104A5000019D883028A253EBA81C81069A2A18A130
:104A6000245121B1AE9800AEAA2291105802A88E0E
:104A7000D8889DA83BA34560910110808C0104104B
:104A80004144991318AD99DAAB88B978150099911A
:104A90009CA93B05B10B4500A33333040BC8A09B75
:104AA0009C099897392181D9CBB0AB9D0201191689
:104AB00001AEA801529D9023C02A72A2808AA08DC7
:104AC000D9880130BA7380D11B90DAAB19A3AE2A12
:104AD00026258A8111B10C202588413420C080B060
:104AE00009DE09C88149220098B8CC9A8C22770146
:104AF0000232B09A8AC998291348A06388959C9E6F
:104B00009008BB23391494BAADEB8070B18020A219
:104B10005B018399AC288DD12A821258A8928FC844
:104B20000A98A000AD09022472A68828840B1017E9
:104B300021001188D88A81018EC11829831CA0C147
:104B40000C8809DA637185100802AD983108981055
:104B500090040B32C8FD0A089AAB2124228AEAEAA3
:104B6000BA2C23961A21158A8101DC9A28A0B26BEF
:104B70003318E100BAAE9B08A18838C19B9839650B
:104B8000070B81169B22620101189389AF8000A850
:104B9000291A930948063F0008C0A908999C924722
:104BA00070A21010B19F810389183190C34991AB55
:104BB000DD19D8181924989019E9BDAA28729221F4
:104BC00041B30F8101AC89109084381589A99AF9F5
:104BD0009D992188915890C8994172C02842922C81
:104BE0002502990830BAFB3903008B24A29FA92221
:104BF0009DB858A011490752B91128F81B21828A83
:104C000022339BCA40A1BEBB20DC8051920A89910D
:104C1000EB9C8B2345893412FA1A11D88A81021A27
:104C20002126B1AB0EB1BCBA10880A3511DA995BF6
:104C300033978B3212CB5782880802B8989B72A8A0
:104C4000906082AC8820EA8980880A142741B830B5
:104C500001F00C1281894103889A38B5BC9C80FB15
:104C6000093291BB3010FC9B193007294382BC20CC
:104C700081CC0A0009282753B9B93BF0AB8BA38C30
:104C8000191418AA817126A90212D86B24818A22CC
:104C9000029B993308203700CB0E13B39F1281CBB0
:104CA0000A99FA191A4723993101F91A02A8093306
:104CB00021A03120B5CFAA10ED8920019A8811DBFF
:104CC000BA3A57981113A28F1398B98BA0181922CA
:104CD00067989A09E19CA980BB111AD89938679303
:104CE000180021CC43208201201408FB38B08949E8
:104CF000878B8922D99AABC90A4B2717190010C88C
:104D000019088089312608914BA2BDAA20FC882869
:104D1000A10AC09C99991977080132A10B10B2BD64
:104D2000BB119D1002278A1129F09CBAB89E902AC7
:104D300091915874921801808C3421C120408200D6
:104D4000902AEC200A0609C81098B9BDB8AC0A57D9
:104D500024192111B921B8BA8D115115001992AD3C
:104D6000D909EA890A0191CA19FB8928439052237B
:104D7000529802B999AF989B918862A99119878D31
:104D8000A0ACEA0AA99908386326188218C8481303
:104D9000110268027B0E3E00109811EC182993183E
:104DA000928BF089C89DBA8A3357014081822A15B7
:104DB000AABA30018937A0428BA28DD89C8808BA44
:104DC00080CAB8EF082202083336884292B9AE99F9
:104DD000A8002992CA1D4386BC08D90AC08AA9B96D
:104DE000993A1731271228A04A35A28A3021A17199
:104DF0001598DB1911A018A21ACF8998B9CC5815AB
:104E0000100052129943A1A9AD42992008639299CA
:104E1000AF10C98A8880BA8CA0FD8A2933937202A8
:104E200000111289CABD901B04AAD89AB96688C01D
:104E30008A9089EBACB909801055034000111035F8
:104E400011012812178BC1588100A0919E21BAD957
:104E5000BD102AD19C18233632A8281545A010A9C8
:104E600013AD7398108020A0B0DF880A9898E98B62
:104E7000B9A908323733A16001088288CB70A10A32
:104E8000BA1298B9AFA12A9C01FBCA9AABBBCE1942
:104E90002264122305EB3C0011234481018C8449D8
:104EA0001191111026CA9AEB089A02EB0019B0ACC6
:104EB000DA5A2710983133109220E8291121E9207D
:104EC000019AF999BB8BCB39F8DA9C9AB999523788
:104ED000100801888B040099301291DFAA0129FB88
:104EE000088998A90AFCAD0A99CA8920562301119C
:104EF00033202293088F251101202490EB19DA9B8F
:104F0000A89A891089A2FFAB0943342410322334B4
:104F100012A99C300053228014FC8DA8BA9B99BB27
:104F20009BC9CF99A90A432613080914331410D832
:104F3000AAB9CA8981401903DA0BFABDBC8C90EB7F
:104F40008A8089625502001021110220220835143E
:104F500001AA0120DDBE88992101A9B9DABEAABA49
:104F60001A771500101111188891BC290619808133
:104F7000BABEB9BCABBC9CB0AC99BACDB91A670388
:104F8000991020511380A9AD99C11C8A0182720128
:104F9000B9CDBBBBDFC63D009A9A088018255434B2
:104FA00080008072233202522202BABA9A8F08BA63
:104FB00098D95090DAAC88A99C08A972371311814E
:104FC000001102280020038B7790DA9B9ADB8A91EC
:104FD000AABC0BA2EBBDAD8A482601110042149178
:104FE000BACA8B08288331312233D9FFACB99AABC6
:104FF00088C89A2843462580082126210231044189
:1050000012BA8ABB08CABB9C588390F99E89AA89A8
:10501000B80B662701008098013080B12B324582A1
:10502000CBEBACA88A98CA8909CAACFBDB8B895246
:1050300016900021230190ADBB8952000080528060
:1050400090BECEBA8C18A99AAA8031705304082851
:1050500026235222238008919FB90A02999B92111C
:10506000A9DEDA9DA819018A327715808008082008
:105070003123B1085102C9AEBABB9F800189BBB0D0
:10508000BDBCDABCDB1A5512881023110298CBCCB8
:105090001A34010090012D006708A9BBBECBAB08F4
:1050A00089BCAA210A8A772480105332322401A9AC
:1050B00009239AFB1A02A98B20C099BDFB8BBA1851
:1050C000139069771380098089414302B98B449119
:1050D000AC9CBACBAC0803A99AB9EFCB9ACB9A494E
:1050E0004701981012889998B9AB59270008100207
:1050F000BACDCBCBBB0881E9AC18908970150129DA
:105100005224222113818898CCAB894204DB0922E6
:10511000CBCCA9ACAA097302206514900888A928F1
:105120005334819B28A3BE9C98BABD0924819AA9B7
:10513000DDBBCBBADB8B7523901922A098889ADA55
:10514000197312113224C9DBCCAAAA9A1002BA2808
:1051500007DB9A54118942442233338098A9BBCB90
:105160009E1134919943D0BDBBBB988A51322357CD
:1051700035019899AB99327422911822FACBAB99E8
:10518000B99A2114802AE0CBCDABAAAC49371209D9
:105190003191AC9BCDEB3A0009002133451220023E
:1051A000D9CFABA9BB9B32028B21C3FF9A314311EC
:1051B000433522222000A0AC9BC9AB6224909B0007
:1051C000DACE9A888028318142722722889900A9F4
:1051D000303247989911A0CF9A88B99B8201880DE7
:1051E000A183BEAEBABC385712801802CBAA808207
:1051F000AC513323225300FBCCAABB9B1836129927
:1052000008C8CD095322112633108282189BD8A1D9
:10521000BCFF131989919BAFB24C8299238F25CA89
:105220004A179908109820B9866B929B2400909E8B
:105230002218C2299814A9389198E83AB91170B285
:10524000900CC08C99910DB00998808E02F88B89D2
:10525000B999B972B98889881890900178A651A82F
:105260008951B1892198C02955BB052A20A9945993
:105270008A178922011B14711500100118002014CF
:1052800081893AB017A95B90A873D0190A24908835
:10529000B83999E298454300048129D18A98B960C8
:1052A00098181400B90809C841CD22BF28910938BF
:1052B000F000BB0812781334A98A11ED2080988879
:1052C000A938F230BABA9D12ED19888030A88AFA4E
:1052D0002A044013B020BCB970C80189AAA08CE987
:1052E000280952D1998C808070A0820DB128303766
:1052F00001A0BBBCAC422014100890BA52321BA6CD
:10530000ABBF0803729020A80ACE1855220101A94C
:10531000882B26118010DB31B37A0201B9AEA810B8
:1053200058158990810D9AB275022188B88B0310A7
:1053300012E98CCA934A8802A1CFAA198148B46A9B
:10534000C20ACA0189708210E989AA1031829AB012
:105350000BF12CA223BD08FB9A181B8719A9A9AB36
:10536000130D568230A89A1AA272B34980A89843A6
:105370000A23FB99A92C13172AE18AAA08A85041ED
:105380002728919AA9199108C29F11000244A0BD33
:10539000C80D801060C43B00569008829C0899316B
:1053A000440188C00C8872048800BB8B056081189A
:1053B000C0991B90AB41F159908008087423338247
:1053C0009DB85011010248C220912A918EB19E20B1
:1053D000825002D988AFB88B1335550101CA08A98C
:1053E00009019919F2480012C8BCB99F9830A0244D
:1053F0008903CC00BA0C499638C80CB8321118A2EF
:10540000BECA48B845A0A12CE8999899199B071ADB
:10541000C82913360143D8AB89214333B8289A47AA
:1054200088B29F819888987318D008A0AB9CC84117
:10543000721422B89B88983B05BA18392700A1AD91
:10544000ABD88B09114116008090BFB828710114A8
:10545000B9B96A82009AAA1129933134A51F83CD64
:1054600019B88031108BC48C4362330285AC98210B
:1054700039248013225BD2B98D149880909B62A846
:1054800011BF98BA198471541302BA8B89D92110AB
:1054900019DA21527D4D4B0089998908A9108B1387
:1054A0004119969C9AD01A925520A49B9B26B9AB81
:1054B00003AE80520080821BB29DEB1ADB11328951
:1054C000E8280831500718A90A00051980A13921D8
:1054D00094CA131FB20509AE01AA9819BE80180517
:1054E00040720608A9008B88811AA15088939AAD52
:1054F000AC119DB11D83521091AA9DE89808748348
:10550000119AA12CB2CB9B8011788520AA2313DF9E
:10551000980A90013914BA22DA29155588821AA2FC
:1055200058809840AA037AC12B80151199CA3AF085
:10553000009BC02B014153035610A18BCB010A8065
:105540003281B071C9A9AA09959D8040810199183D
:10555000EBC00D89432730B00ABB81DCBB290003B7
:105560006580811110D8ADA989DB11528000B899EE
:105570003B700740B8082015A88A0820A825DC1829
:1055800031940A91C9BA0DB800DB0B1843675080FB
:10559000818BA12AF2243C00BF893352B89089EA5A
:1055A0001A20F39D002219A100BBD81BF90879131A
:1055B00003AA120CD9CB9A29430A8421539081ADB6
:1055C000CA2AA0BB1A538011D94A1177809029802A
:1055D00042A18D1030B41AA9021A37B01029B4BFF5
:1055E000B01A818ABA4067418202AA1119C8EB89B0
:1055F0004113BB001AA29BE11CB139A1B83C33E1B5
:10560000CCAB6811370A832A9190DDAB99300488BE
:105610000B373298C829FA189AA82A51B1AC084217
:1056200051A42A003628A38C319000AAA96B0799AF
:105630009B540088D09ACB10BB008928573599110C
:10564000189229F90A882094AD9880AB9BDB400220
:10565000A19F020088DB898A0932F33D0338859BCC
:10566000FA8B888A42A900343292AC129FB08A1019
:10567000BA3335C879E019900A3213A85026129827
:1056800008111208B19C7217018889BAFB0BA83166
:10569000051873837C1A3C00891203C8AF11B88ABD
:1056A0007184AA9990C9AABC7203982034B0993128
:1056B000A0BE0BB89C544380A901BFBBCB99730318
:1056C000085290000098CA1934FA092834A88910A1
:1056D000FA8A884024003252161A9120B089220A90
:1056E00007480289ED8AA8AC8953139A6223A1ABBB
:1056F0005108C82891CD411208F89AA9BA9D3113D2
:10570000900936A89CA8A19BBF52908C3133B2AFB0
:10571000A8BAADBB7002083806981A0181CC0913EB
:10572000AC0229A200F98F92AC282601811852827E
:105730009800180228A2BE31158C80DBACAB490260
:105740003482384712C92902883037DA8A2082CC5D
:1057500009B9CB8B124926C8310000FA2AA8AA50F1
:1057600025CA08428190BC99CC9A1073028A3314DE
:10577000AA8009000872C48B1010CC10A9AC18AC18
:10578000732588400300AA21810175918810918AB0
:1057900003BFAC8ABB0A3B00CB222420220642C0B6
:1057A0008C01001A279009B9A18DC8BC08CA094408
:1057B00081001811B3CF8A889B46909A212080B827
:1057C0009DDAADA9193500A97303A98A11B22C433A
:1057D000A10AF06AC918B09A8A2A6710880032D0E4
:1057E00038A29B3215130A91AD939F809AC18E0007
:1057F000540190282399B138898661019AC0089A8A
:10580000FC9C98A91A1167B828B3299AC9927BA061
:1058100020B3191828D2CBAC819D0842A28871A16F
:10582000B23A045ABA87798AA228B8009CB28F0289
:1058300020249804500AF22080891519888122AB0F
:10584000BA93CFA03A917022B15299089A0221914D
:1058500072850AE3109AFB818FA220A822930A5036
:10586000BB02BD232BA5101DA8043AACC0211BFC14
:10587000821B0288A179D11129A45BA0C4210B1835
:10588000B192C90D914C923A976AA8210991814829
:10589000A003A16FC22845001F90D3200D9218903D
:1058A000825AA821B0853C09D3380080E0528E93FB
:1058B00009981B88F3410C919228090BB6285AE0ED
:1058C00021998018E178B982082AA000A280498B2A
:1058D000874CB0A63A01CA148B00B37BB8C3580CEE
:1058E000A3A1412BA8965A99A220A1798998B748DB
:1058F0001BC0030B10A903390CB5401DB2825A9A84
:10590000848810098B95198A98E17AA8A220A10CA5
:1059100014BB24000F02B079B828808A28E3013D27
:10592000C10912A91C84C8250D82800982181EC3D2
:105930004BB208011C3AF300114CB8944CC2201829
:105940000A03A840F8388989830D973B99B4213E12
:10595000A0A1331E29D292698AA1039A4AA0903845
:10596000C8AA171DA10109108A9874BA85498B919C
:10597000B35B0A9820F031AB12A86CA8A2022918D8
:1059800002938F951CD3201A0AA7097BC80228AA64
:1059900014A8480A3F144A004CB8073CB0032C88AE
:1059A000A0814CF0221CA0934A8991184AC904187E
:1059B00088111A8D973B19D128A8022EF1121B8845
:1059C000B339A883308C052DB8963A8BB3B1681CD7
:1059D000C228A8926AB059B8B6500AC1032C09C3AC
:1059E000003AC89349D838B149A0851C0108A07075
:1059F000C803389D13C92199A0321DAAA7400E9251
:105A0000805AB02098201998A74B909811B0202D5B
:105A1000A1E018310FB1848A78C8218890209811AC
:105A2000DB21B81C03B97BC1841DA3191A20D22025
:105A3000D3311F91904AC19060A90081898031CBF8
:105A400023818F15902A83A32F83B930C08968C919
:105A5000021AD20984892DB3A07309A815AA400996
:105A6000C803290DB4202BEA92191BF0016A989102
:105A7000439908B1482BC4AB2AE92129A1A0234CA2
:105A8000C210AB3AA7183AB1B56A1881C06A932B15
:105A9000C29ABA3C38C83B00F07B9B9305502188E2
:105AA000802618A9B12C88AA1AD24808A8159CAA41
:105AB00090C91B72A888C379870A8379919A035C7D
:105AC000F9108A01A11C82229C1421B90A141BF22C
:105AD0008D2188981B0788128B1114BE188181189C
